:020000040800F2
:10000000500B002065130008F9020008FB020008ED
:10001000FF020008030300080703000800000000B7
:100020000000000000000000000000000B030008BA
:100030000D030008000000000F030008FD0D00087C
:100040007F1300087F1300087F1300087F13000848
:100050007F1300087F1300087F1300087F13000838
:100060007F1300087F1300087F1300087F13000828
:100070007F1300087F1300087F1300087F13000818
:100080007F1300087F1300087F1300087F13000808
:100090007F1300087F1300087F1300087F130008F8
:1000A0007F1300087F1300087F1300087F130008E8
:1000B000110300087F1300087F1300087F13000856
:1000C0007F1300087F1300087F1300087F130008C8
:1000D0007F130008990B00087F1300087F130008A6
:1000E0007F1300087F1300087F1300087F130008A8
:1000F0007F1300087F1300087F1300087F13000898
:100100007F1300087F1300087F1300087F13000887
:100110007F1300087F1300087F1300087F13000877
:100120007F1300087F1300087F1300087F13000867
:10013000DFF80CD003F0EEF9004800474501000855
:10014000500B00204FF47A7400F0A3FA642000F002
:1001500092FE9EE04FF48071524801F083FA5249BA
:1001600008604FF480704F49143108604F48008890
:100170004F4990FBF1F201FB120038B949480C30AD
:10018000006880F4807047490C3108604748008857
:10019000401C4649088047484079012804D118226C
:1001A0004449454802F0F0FD4248407B01285AD1BD
:1001B00042480068002856D118223E493E4802F0C5
:1001C000E3FD3D480068B0FBF4F5284603F055F820
:1001D0003B4A03C238480068B0FBF4F03649086077
:1001E00008468068B0FBF4F5284603F046F8354A27
:1001F00003C231488068B0FBF4F02F49886008469C
:100200000069B0FBF4F00546086103F036F82E4AA9
:1002100003C2002027494871487329480CC80020B0
:100220002A4902F0B6FF2A4A03C226480CC8002019
:10023000264902F0AEFF274A03C2254825490CC8CB
:1002400003C902F02EFF05460022234B02F02FFFC8
:1002500007461D480CC8384602F09BFF1F4A03C2E0
:1002600001201649086015480068012811D1184876
:100270001BA10CC81C4803F07FF9164818A10CC834
:100280001A4803F079F9154815A10CC8184803F06D
:1002900073F95FE717484088401C1649898800EBCE
:1002A0000140704700080140580000204C00002029
:1002B000A08601005C000020F40000205000002017
:1002C00008000020100000201800002000407F409F
:1002D000200000202800002000408F403000002037
:1002E000252E346600000000380000203E0000206B
:1002F0004400002000000020704700BFFEE700BF60
:10030000FEE700BFFEE700BFFEE77047704770479B
:1003100010B50121880702F01EFB60B16448008817
:1003200048B964488088401C624988800121880758
:1003300002F022FB11E00121880702F00CFB60B102
:100340005B480088012808D15B488088401C5A49D6
:1003500088800121880702F00FFB0221480702F084
:10036000FAFA002852D053484078E0B9534840691F
:10037000012818D10021800702F0B8FA00204D4969
:10038000888048804C498880488001204B4908710A
:100390000221800702F0C8F9012046494870022076
:1003A000464948612EE04548407901282AD1434812
:1003B0004069032826D14FF0804002F0ADFA3D4954
:1003C000488008464088401C898800EB01403B4932
:1003D000086100214FF0804002F0A6F900214FF0A3
:1003E000804002F083FA0120314908800020324920
:1003F000888048800120314908732F4948700420C3
:100400002E4948610221480702F0B6FA0421080784
:1004100002F0A1FA00284AD027484078D8B92748E6
:100420004069022817D1400702F076FA2149488036
:1004300008464088401C898800EB01401F4908603D
:1004400001204871002008710320486102214807FB
:1004500002F07CF927E018484078012823D117489A
:10046000406904281FD1000702F059FA1249488058
:1004700008464088401C898800EB01400F4988608D
:1004800001204873002008730A4948700A494870DF
:1004900001200A49486100200549088000214FF0E9
:1004A000804002F053F90421080702F065FA10BDFC
:1004B0004A000020740000207A0000205C00002028
:1004C00008B54FF4A06000F05FFF25208DF8000014
:1004D00001208DF801008DF802008DF803006846B8
:1004E00000F057FF08BD00B585B00121042001F0E0
:1004F000D5FA0121880301F0D1FA4FF40070ADF86C
:10050000100018208DF8130003208DF8120004A9A4
:10051000524801F007F84FF48060ADF81000042055
:100520008DF8130004A94D4800F0FCFF4FF4E130B2
:1005300000900020ADF80400ADF80600ADF808000A
:10054000ADF80C000C20ADF80A006946444802F0F2
:100550005AFAFFF7B5FF012240F22551404802F058
:10056000EAFA01213E4802F0DAFA05B000BD70B5A2
:1005700004460D462946204602F03EFB00BF80217E
:10058000204602F0A7FB0028F9D070BD2DE9F0410C
:1005900007460D461646002405E0295D3846FFF75C
:1005A000E6FF601CC4B2B442F7DB00BF402138460E
:1005B00002F090FB0028F9D0BDE8F08170B5064646
:1005C0000C46002500BF615D3046FFF7D0FF6D1C73
:1005D000605D0028F7D100BF4021304602F07AFB71
:1005E0000028F9D070BD2DE9F04105460C46260AD9
:1005F000E7B23146284602F0FFFA00BF80212846C4
:1006000002F068FB0028F9D03946284602F0F4FAD7
:1006100000BF8021284602F05DFB0028F9D0BDE82C
:10062000F08170B504460D46E1B20D4802F0E4FADF
:1006300000BF80210A4802F04DFB0028F9D0204677
:1006400070BD10B5044600BF2021054802F042FBF2
:100650000028F9D0024802F0D3FA10BD000801408A
:100660000038014008B50121042001F017FA0320E9
:10067000ADF8000004208DF8030003208DF802007F
:1006800069460A4800F04EFF0321084800F0F7FFD2
:1006900008BD10B500F094FD00F0D7F800F008F8A0
:1006A000FFF7E0FF10BD0146704700000008014061
:1006B00008B50121102001F0F1F94FF48070ADF878
:1006C000000010208DF8030003208DF80200694619
:1006D0001C4800F027FF4FF480711A4800F0CFFF4C
:1006E00008BD08B50121402001F0D8F92020ADF85F
:1006F000000048208DF803006946134800F012FFFF
:1007000008BD70B504460D462946204600F09DFF01
:10071000012814D142F2107000F0ADFB29462046AA
:1007200000F093FF012808D100BF2946204600F0C1
:100730008CFF0128F9D0012070BD0020FCE70020CB
:10074000FAE70000000801400018014008B54FF426
:10075000E06000F019FE1C208DF8000000208DF8EC
:10076000010003208DF8020001208DF80300684687
:1007700000F00FFE08BD00B587B00121084601F06A
:100780009AF94FF6FF70ADF814004720ADF810004D
:100790000020ADF81600ADF812008DF8180004A97D
:1007A0004FF0804001F0B2FA0020ADF806000120C1
:1007B000ADF808000020ADF80A00ADF80C0001A962
:1007C0004FF0804001F035FD0121042001F066F971
:1007D00004208DF803000120ADF8000069461E4892
:1007E00000F0A0FE0020ADF8040001A94FF0804009
:1007F00001F01FFD01220221480701F0FEFD022049
:10080000ADF800006946144800F08CFE0420ADF8F5
:10081000040001A9000701F00CFD0421080702F003
:1008200097F801220421080701F0E7FD012188075C
:1008300002F08EF801221146900701F0DEFD012141
:10084000880701F0BFFD07B000BD10B5FFF77EFFC0
:10085000FFF791FF10BD00000008014070B50B4686
:10086000FD49097829B9FD49FD4A11600121FA4A7B
:100870001170FC49095C21F0F002FA490A54190789
:100880000A0EF8490A54C41700EBD4646411A4009A
:1008900004F1E024D4F800410246C51700EBD56509
:1008A0006D11A0EB45160125B5402C430146C51737
:1008B00000EBD5656D11AD0005F1E025C5F80041EF
:1008C00070BD10B500F0F7FCE748006810BD2DE9D9
:1008D000F0470C461F46DDE9085600218C46E34BE5
:1008E000984207D1E24B9B6943F00403DFF8808311
:1008F000C8F81830DF4B984207D1DD4B9B6943F0B5
:100900000803DFF86C83C8F81830DB4B984207D136
:10091000D74B9B6943F01003DFF85483C8F81830B5
:10092000D64B984207D1D24B9B6943F02003DFF8A6
:100930004083C8F81830D24B984207D1CC4B9B6902
:1009400043F04003DFF82883C8F8183002B900BF2D
:10095000012A05D116B941F0040101E041F0080176
:1009600005F0030303B90325022A05D105F00301AD
:1009700007F0010341EA8301032A07D105F00301CF
:1009800007F0030343F0020341EA830100231FE061
:100990004FF0010808FA03FC04EA0C08B8F1000F54
:1009A00015D0D0F800804FEA830A4FF00F0909FAFA
:1009B0000AF928EA0908C0F80080D0F800804FEA58
:1009C000830901FA09F948EA0908C0F800805B1CAC
:1009D000082BDDD3002321E003F108084FF00109C3
:1009E00009FA08FC04EA0C08B8F1000F15D0D0F899
:1009F00004804FEA830A4FF00F0909FA0AF928EA3E
:100A00000908C0F80480D0F804804FEA830901FA8D
:100A100009F948EA0908C0F804805B1C082BDBD3FD
:100A2000012E02D1036923430361022E03D103691E
:100A300043EA04430361BDE8F0872DE9FC4705461E
:100A40008B48806940F480408949886101200321F6
:100A500000230A46CDE9001041028448FFF737FF22
:100A60000020032103460122CDE9001091027F48B6
:100A7000FFF72DFF280102F0FBFB8146FFF721FF66
:100A8000824602F0F5FB8046494602F02BFA064604
:100A9000304602F0FFFB84B2204602F0E9FB8246BA
:100AA000314602F0EAF981464FF0834102F0E8F95D
:100AB000804602F0EFFB87B24FF6FF7000EA0414A5
:100AC000E01984B26F48048000206E49091D088037
:100AD0000846008840F0040008800846008840F07E
:100AE000080008800846008840F01000088008468A
:100AF000008808800846008808800846008808802A
:100B0000402060490C3108805948406940F001009C
:100B10005749486100205C4988655A48001F0866AB
:100B20005A4848664815C8650846806D8865084675
:100B3000806D88650846806D88650846806D40F048
:100B4000800088650846806D88650846806D8865E8
:100B50000846806D40F4805088650846806D886541
:100B60000846806D40F00100886506212520FFF7CA
:100B700075FE4448001D008840F400504149091D9D
:100B8000088001204249487042A002F0E5FC51A0D3
:100B900002F0E2FCBDE8FC8770B53A4808380088EE
:100BA00000F01000002837D0364808380088354853
:100BB000001F00883448806D20F0010032498865AC
:100BC0000846C06D4042C5B24FA002F0C5FC0024EB
:100BD00006E02E48015D52A002F0BEFC601CC4B2CB
:100BE000AC42F6DB3AA002F0B7FC4FF400722749A2
:100BF0004C4802F0C9F84FF40071244802F0DDF8C7
:100C000001202349887040021F49C8650846806D4D
:100C100040F00100886500BF1A480838008800F0DD
:100C20008000C0B1404801780078401C3E4A1070F6
:100C30003E48405C1349091F0880104600783C4933
:100C40000978884207D10F48001D008820F08000F5
:100C50000C49091D088070BDC90000200003FA0579
:100C60000CED00E000E400E0DC00002000080140A2
:100C700000100240000C014000100140001401402F
:100C80000018014008380140000002400C0100201B
:100C90000C0500200D0D0D3D3D3D3D3D3D3D3D3DD7
:100CA00020C4A7C5AEBFAAB7A2B0E52053544D33A8
:100CB00032463130335243543620CDE2C9E8B3F5E1
:100CC000CABCB1A8B8E6203D3D3D3D3D3D3D3D3D62
:100CD0000D000000555341525431C5E4D6C32020C5
:100CE00020202020202020202020BFD5CFD0D6D0EB
:100CF000B6CF2B444D41BDD3CAD52C20D6D0B6CFCC
:100D0000B7A2CBCD0D0000000D55534152547820B1
:100D1000BDD3CAD5B5BDD0C5CFA23A2000000000D2
:100D2000256300000C030020B00000204E050020C9
:100D3000B100002070B5024600200AE0145CE94BC7
:100D40001D781B785B1CE74E3370E74B5C55431CEA
:100D5000D8B28842F2DBE548008800F0800028B96C
:100D6000E248008840F08000E04B188070BD70B50C
:100D700004460025264600E06D1C16F8011B0029DC
:100D8000FAD1E9B22046FFF7D5FF70BD00BF70472A
:100D900010B5D748806940F00100D5498861D54831
:100DA000406840F00070D3494860D348D349086098
:100DB00000F081FAD1480168D1A002F0CDFBCF4804
:100DC0000068C0084FF47A71B0FBF1F4601E4FF078
:100DD000E0214861002088610861084600690861D7
:100DE0000846006940F0020008610846006940F0CA
:100DF00001000861CAA002F0AFFB10BDD148D0E9E4
:100E000000305A1C40F10000CE49C1E90020704773
:100E1000CC4903C970472DE9F04700BFFFF7F8FF41
:100E200004464FF0E02040694FF0E0218969401A04
:100E30004FF47A7148434FF0E0214969B0FBF1F972
:100E4000484602F015FA0746204602F011FA81469C
:100E5000BD4902F015F88046394601F0B9FF064653
:100E600002F018FA0546FFF7D3FF60400843D5D1DA
:100E70002846BDE8F08730B50246FFF7C9FFB34BFF
:100E800003C300BFFFF7C4FFB04BD3E900530446D0
:100E900008461946631B60EB01009B1A70F10000C5
:100EA000F0D330BD70B50446FFF7B5FF0026054608
:100EB00000BFFFF7B0FF0021421B61EB0601121BD0
:100EC00071F10001F5D370BD10B5A1480068A149CA
:100ED0000860FFF7A0FF9E4908609E48006828B19F
:100EE000084600689B490968401A10BD0020FCE7CD
:100EF00010B5FFF7E9FF044654B997A002F02CFBA8
:100F00009B480078401C9A490870FFF7DDFF10BD30
:100F1000974801780078401C954B1870224695A0A0
:100F200002F01AFBFFF7D0FF00BFF0E72DE9F04118
:100F30000346144600260020964A934200D100BF83
:100F4000954A934200D10126944A934200D1022649
:100F5000934A934200D10326924A934200D1042639
:100F6000914A934200D10526904A934200D1062629
:100F7000002207E0012797408F4201D1104603E08D
:100F8000571CFAB2102AF5DB00BF0246C71700EB68
:100F90009777BF10A0EB8707BF063D0E544A9269B2
:100FA00042F00102524FBA61C71700EB97774FEA40
:100FB000A70C504F083757F82C704FF00F0C0CFA55
:100FC00005FC27EA0C0702464FEAE07C00EB9C7C1C
:100FD0004FEAAC08DFF81CC10CF1080C4CF8287083
:100FE000C71700EB97774FEAA70C424F083757F81F
:100FF0002C7006FA05FC47EA0C074FEAE07C00EB90
:101000009C7C4FEAAC08DFF8ECC00CF1080C4CF803
:101010002870674A12680A43654F3A6004F001027B
:1010200032B1634A0C3212680A43614F0C373A609E
:1010300004F0020232B15E4A083212680A435C4F81
:1010400008373A60BDE8F0812948806940F0010026
:10105000274988612748406820F0E06025494860BA
:101060000846406840F00070486070475148524957
:101070000860704730BF704772B6704762B67047FD
:1010800000B54D48001D006840F004004A49091DA4
:1010900008601748C06940F080501549C86147484A
:1010A000406840F48070454948600846006840F058
:1010B000040008600846006840F002000860FFF77E
:1010C000D9FF00BD0A49496821F07061084A5160A2
:1010D0001146496800F00F0241EA0261044A51607A
:1010E00070470000B10000204E0500200C38014080
:1010F0000010024000000140A25D4F00DC00002013
:10110000CFB5CDB3D4CBD0D0CAB1D6D320202020F8
:10111000202020202020256420487A0D0000000097
:101120005379735469636BCAB1D6D3C5E4D6C3206F
:10113000202020202020316D73D6D0B6CF31B4CE00
:101140000D000000A800002000007A44B800002034
:10115000C4000020C0000020A1BED4CBD0D0CAB1B2
:10116000B3A420D4ADB5E3CEBB20A1BF0D000000D9
:10117000C8000020A1BED4CBD0D0CAB1B3A42DBC2E
:10118000E0B2ECB5E32D25643A253975207573A1DD
:10119000BF0D000000080140000C0140001001409C
:1011A0000014014000180140001C014000200140D3
:1011B000000401400400FA050CED00E0007000405E
:1011C0000CB56048006840F001005E4908600846C0
:1011D00040685D4908405B4948600846406820F423
:1011E000FE0048604FF41F008860002001900090CE
:1011F0000846006840F48030086000BF514800682D
:1012000000F4003000900198401C0190009818B93B
:101210000198B0F5A06FF1D14A48006800F40030A1
:10122000002843D04948006840F010004749086052
:101230000846006820F0030008600846006840F097
:10124000020008603F4840683E49486008464068E0
:1012500048600846406840F480604860084640683E
:1012600020F47C1048600846406840F4E81048606C
:101270000846006840F08070086000BF3148006890
:1012800000F000700028F9D02E48406820F00300DC
:101290002C4948600846406840F00200486000BFA2
:1012A0002848406800F00C000828F9D14FF0006091
:1012B000274908600CBD10B5002100200022214BF9
:1012C0005B6803F00C0121B1042906D0082928D15C
:1012D00007E0204B204C236027E01E4B1E4C236070
:1012E00023E0184B5B6803F47010164B5B6803F443
:1012F0008032022303EB904022B9184B4343164C33
:1013000023600DE00F4B5B6803F4003323B1134BF4
:101310004343114C236003E00E4B43430E4C2360C8
:1013200003E00C4B0C4C236000BF00BF054B5B6817
:10133000C3F303130A4CE15C074B1B68CB40064C1C
:10134000236010BD001002400000FFF800200240A2
:1013500008ED00E000127A00DC00002000093D00EA
:10136000CC0000200648804706480047FEE7FEE71D
:10137000FEE7FEE7FEE7FEE7FEE7FEE7FEE7FEE745
:10138000C11100083101000831490143314A11609F
:10139000704770B5002100230F22C47804B32D4C90
:1013A000246804F4E064C4F5E064210AC1F1040394
:1013B000CA40447804FA03F18478144021430901B7
:1013C000254C0678A155047804F01F050124AC4093
:1013D00005786D11AD0005F1E025C5F8004109E083
:1013E000047804F01F050124AC401C4D06787611EA
:1013F00045F8264070BD1A4A0A400243154B1B1F90
:101400001A60704739B1134A121D12680243114B1A
:101410001B1D1A6006E00F4A121D126882430D4B15
:101420001B1D1A607047042808D14FF0E02109699C
:1014300041F004014FF0E022116107E04FF0E0219C
:10144000096921F004014FF0E022116170470000AA
:101450000000FA050CED00E000E400E080E100E0AF
:1014600080FFFF1F10B50446CC48844208D10121FB
:10147000042000F02DFB0021042000F029FB46E0B1
:10148000C748844208D10121082000F021FB002137
:10149000082000F01DFB3AE0C248844208D1012137
:1014A000102000F015FB0021102000F011FB2EE0B1
:1014B000BD48844208D10121202000F009FB002111
:1014C000202000F005FB22E0B848844208D1012129
:1014D000402000F0FDFA0021402000F0F9FA16E06B
:1014E000B348844208D10121802000F0F1FA0021A4
:1014F000802000F0EDFA0AE0AE48844207D10121D5
:10150000801500F0E5FA0021A01500F0E1FA10BD09
:1015100010B50121084600F0DBFA0021012000F09F
:10152000D7FA10BD2DE9F041024600250026002023
:1015300000230024002791F803C00CF00F0591F858
:1015400003C00CF0100CBCF1000F03D091F802C0E6
:101550004CEA050591F800C0BCF1000F31D01468C9
:1015600000202BE04FF0010C0CFA00F3B1F800C0A2
:101570000CEA03069E4220D183004FF00F0C0CFAB8
:1015800003F7BC4305FA03FC4CEA040491F803C0DA
:10159000BCF1280F06D14FF0010C0CFA00FCC2F888
:1015A00014C00AE091F803C0BCF1480F05D14FF018
:1015B000010C0CFA00FCC2F810C0401C0828D1D362
:1015C0001460B1F800C0BCF1FF0F34DD5468002096
:1015D0002EE000F1080C4FF0010808FA0CF3B1F806
:1015E00000C00CEA03069E4221D183004FF00F0C8D
:1015F0000CFA03F7BC4305FA03FC4CEA040491F827
:1016000003C0BCF1280F05D100F1080C08FA0CF852
:10161000C2F8148091F803C0BCF1480F07D100F163
:10162000080C4FF0010808FA0CF8C2F81080401CB2
:101630000828CED35460BDE8F0814FF6FF710180D9
:10164000022181700421C170704702460020936816
:101650000B400BB1012000E0002070470146886874
:1016600080B2704702460020D3680B400BB10120C6
:1016700000E0002070470146C86880B270470161F1
:101680007047416170470AB1016100E041617047F4
:10169000C16070474FF480320A4382618161826188
:1016A00082698269704702460020434B18684FF6F2
:1016B0008073184040EA021008433F4B186070479F
:1016C0003E49C8617047F0B50A4600230024002156
:1016D000002500F00046B6F1004F02D1364EF16908
:1016E00001E0354E7168C0F3034583B200F4401643
:1016F000B6F5401F08D121F070612F4E766826F0B4
:1017000070662D4F7E6012E000F48016B6F5801FE3
:1017100006D1032606FA05F4A14341F0706106E004
:10172000460D360103FA06F6B14341F0706122B16D
:10173000460D360103FA06F6314300F00046B6F1D5
:10174000004F02D11C4EF16101E01B4E7160F0BDF3
:1017500030B500228B071C0F0F2303FA04F2164B3F
:1017600008338C1053F824309343134C08348D10F5
:1017700044F8253023468C1053F824308C07240F6E
:1017800000FA04F423430C4C08348D1044F825303F
:1017900030BD0A49DC310860704700000008014094
:1017A000000C0140001001400014014000180140ED
:1017B000001C0140002001400000014000002042C8
:1017C000DF48006840F00100DD49086008464068D5
:1017D000DC490840DA49486008460068DA490840B0
:1017E000D74908600846006820F480200860084651
:1017F000406820F4FE0048604FF41F008860704786
:10180000CF49096821F48031CD4A11601146096839
:1018100021F480211160B0F5803F03D0B0F5802F16
:101820000ED106E0C649096841F48031C44A11600E
:1018300007E0C349096841F4A021C14A116000E0F2
:1018400000BF00BF704710B50146002200230020F2
:101850004A11012A02D1BA4C236806E0022A02D1B9
:10186000B74C236A01E0B64C636A01F01F02012401
:1018700094401C400CB1012000E0002010BD38B5A0
:10188000002000900024002500BF3120FFF7DBFF7F
:1018900005460098401C00900098B0F5A06F01D05C
:1018A000002DF2D03120FFF7CEFF08B1012400E077
:1018B0000024204638BD01460020A14A106820F0CF
:1018C000F80040EAC10010607047A0490860704706
:1018D000024600209A4B586820F47C1042EA01032B
:1018E0001843974B586070479849086670470146FF
:1018F0000020934A506820F003000843506070476E
:101900008F48406800F00C007047014600208C4A68
:10191000506820F0F00008435060704701460020F6
:10192000874A506820F4E0600843506070470146E1
:101930000020834A506820F4605040EAC1005060A3
:10194000704729B17E4A527A02437D4B5A7204E0B5
:101950007B4A527A82437A4B5A7270477B49D8311C
:101960000860704701460020754A506820F44040E6
:101970000843506070470021714A20321170704A4C
:1019800082F82010012802D004280AD104E00121A5
:101990006B4A2032117005E00521694A203211702E
:1019A00000E000BF00BF70476949086070476449A4
:1019B000096A0143624A1162704765494439086007
:1019C000704730B500210022002400235C4D6D6873
:1019D00005F00C0121B1042905D0082923D105E027
:1019E0005C4D056022E05B4D05601FE0544D6D6865
:1019F00005F47012524D6D6805F48034022505EB34
:101A000092421CB9544D554305600BE04C4D6D6836
:101A100005F400351DB1504D5543056002E04D4DB4
:101A20005543056002E04B4D056000BF00BF444DCB
:101A30006D6805F0F0010909484D6B5C0568DD40F3
:101A400045603F4D6D6805F4E061090A434D6B5CEC
:101A50004568DD4085603A4D6D6805F46051C90AFE
:101A60003E4D6B5C4568DD40C560354D6D6805F4E5
:101A70004041890B3A4D6B5CC568B5FBF3F50561D8
:101A800030BD29B12E4A526902432D4B5A6104E000
:101A90002B4A526982432A4B5A61704729B1284A1E
:101AA00092690243264B9A6104E0254A9269824377
:101AB000234B9A61704729B1214AD2690243204BD6
:101AC000DA6104E01E4AD26982431D4BDA61704735
:101AD00029B11B4AD2680243194BDA6004E0184A64
:101AE000D2688243164BDA60704729B1144A1269F2
:101AF0000243134B1A6104E0114A12698243104BEE
:101B00001A61704712494039086070470F49C8642C
:101B100070470B49C87170470948406A40F08070AF
:101B200007494862704701460020054A92680A400A
:101B30000AB1012000E00020704701498872704717
:101B4000001002400000FFF8FFFFF6FE00004242D6
:101B50008004424200127A0000093D00E0000020AB
:101B6000F000002010B50446FE48844208D101214F
:101B7000C014FFF7ADFF0021E014FFF7A9FFC4E098
:101B8000B4F1804F08D101210846FFF7AEFF0021D4
:101B90000120FFF7AAFFB8E0F348844208D10121F1
:101BA0000220FFF7A2FF00210220FFF79EFFACE01A
:101BB000EE48844208D101210420FFF796FF00215E
:101BC0000420FFF792FFA0E0E948844208D10121F8
:101BD0000820FFF78AFF00210820FFF786FF94E026
:101BE000E448844208D101211020FFF77EFF002144
:101BF0001020FFF77AFF88E0DF48844208D10121F6
:101C00002020FFF772FF00212020FFF76EFF7CE00D
:101C1000DA48844208D101214014FFF759FF00211E
:101C20006014FFF755FF70E0D548844209D10121C7
:101C3000C804FFF74DFF00214FF40020FFF748FFD5
:101C400063E0D048844209D101210805FFF740FF35
:101C500000214FF48010FFF73BFF56E0CA48844252
:101C600009D101214805FFF733FF00214FF400108F
:101C7000FFF72EFF49E0C548844208D101214020EA
:101C8000FFF733FF00214020FFF72FFF3DE0C04862
:101C9000844208D101218020FFF727FF0021802006
:101CA000FFF723FF31E0BB48844208D101218015B2
:101CB000FFF71BFF0021A015FFF717FF25E0B6482F
:101CC000844209D101210804FFF702FF00214FF4EB
:101CD0008030FFF7FDFE18E0B048844209D10121B1
:101CE0004804FFF7F5FE00214FF40030FFF7F0FE47
:101CF0000BE0AB48844208D101218804FFF7E8FEDD
:101D000000214FF48020FFF7E3FE10BD002202887F
:101D1000944B98420ED0994B98420BD0B0F1804F23
:101D200008D0914B984205D0904B984202D0904BEE
:101D3000984204D14FF68F731A404B881A438D4B4B
:101D4000984207D08C4B984204D04FF6FF431A407C
:101D5000CB881A4302808B8883850B880385814B4F
:101D600098420BD0854B984208D08B4B984205D0B7
:101D70008A4B984202D08A4B984201D10B7A038653
:101D800001238382704770B5002400220023058C54
:101D90004FF6FE7635400584028C8388048B4FF61F
:101DA0008F752C40B51E2C400D882C43751E2A4083
:101DB0000D892A434D882A436A4DA8420BD06F4DA6
:101DC000A84208D0744DA84205D0744DA84202D054
:101DD000734DA84213D14FF6F7752A404D892A4317
:101DE0004FF6FB752A408D882A434FF6FF652B403E
:101DF0004FF6FF552B408D892B43CD892B43838094
:101E00000483CD888586028470BD70B500240022CD
:101E10000023058C4FF6EF7635400584028C8388CD
:101E2000048B48F6FF752C404FF6FF452C400D887B
:101E30004FF6FF7606EA05252C434FF6DF752A405C
:101E40000D8906EA05152A434D8806EA05152A4339
:101E5000444DA84202D0494DA8421DD14FF67F758E
:101E60002A404D894FF6FF7606EA05152A434FF6BC
:101E7000BF752A408D8806EA05152A434FF6FF35BF
:101E80002B404FF2FF752B408D8906EA85052B43C9
:101E9000CD8906EA85052B4383800483CD88058799
:101EA000028470BD70B5002400220023058C4FF61B
:101EB000FF6635400584028C8388848B4FF68F75CE
:101EC0002C404FF6FC752C400D882C434FF6FF55E7
:101ED0002A400D894FF6FF7606EA05252A434D88EC
:101EE00006EA05252A431F4DA84202D0234DA842E9
:101EF0001DD14FF2FF752A404D894FF6FF7606EA55
:101F000005252A434FF6FF352A408D8806EA052528
:101F10002A434EF6FF752B404DF6FF752B408D89F9
:101F200006EA05152B43CD8906EA05152B43838068
:101F30008483CD888587028470BD70B5002200231C
:101F40000024058C4EF6FF7635400584038C84888A
:101F5000828B48F6FF752A404FF6FF452A400D88D0
:101F600020E00000002C0140000400400008004078
:101F7000000C0040001000400014004000340140FC
:101F8000004C014000500140005401400018004046
:101F9000001C00400020004000400140004401407F
:101FA000004801404FF6FF7606EA05252A434DF624
:101FB000FF752B400D8906EA05352B434D8806EA4F
:101FC00005352B43FA4DA84202D0FA4DA84208D15C
:101FD0004BF6FF752C408D894FF6FF7606EA851586
:101FE0002C4384808283CD88A0F84050038470BD48
:101FF000828B4FF2FF331A408283828B4FF6FF733E
:1020000003EA01231A4382837047F0B50C46154654
:10201000002200210026078C4EF6FF7C07EA0C0701
:102020000784828B018C4FF6FF7707EA043640F66F
:10203000FF473A404FF6FF7707EA05273A434FF646
:10204000FF7707EA03373A43D94FB8420ED0D94F4A
:10205000B8420BD0B0F1804F08D0D74FB84205D06E
:10206000D64FB84202D0D64FB84206D14DF6FF77D0
:10207000394046F48057394305E047F6FF57394069
:1020800044F48057394382830184F0BD828B4FF63C
:10209000F3731A408283828B0A4382837047F0B5C0
:1020A0000C461546002200210026078C4FF6FF6CD7
:1020B00007EA0C070784828B018C4FF6FF7707EA4B
:1020C00004264FF60C773A404FF6FF7707EA0317DE
:1020D0002F433A43B64FB8420ED0B64FB8420BD05A
:1020E000B0F1804F08D0B44FB84205D0B34FB842DA
:1020F00002D0B34FB84206D14FF6FF57394046F4ED
:102100008077394305E04FF2FF57394044F4807738
:10211000394382830184F0BD028B4FF2FF331A40B2
:102120000283028B4FF6FF7303EA01231A430283F3
:102130007047F0B50C461546002200210026078C9A
:102140004FF6EF7C07EA0C070784028B018C4FF6F1
:10215000FF7707EA041640F6FF473A404FF6FF774D
:1021600007EA03373A434FF6FF7707EA05273A4372
:102170008F4FB8420ED08F4FB8420BD0B0F1804F86
:1021800008D08D4FB84205D08C4FB84202D08C4F4A
:10219000B84206D14FF6DF77394046F01007394391
:1021A00005E04FF65F77394044F01007394302836A
:1021B0000184F0BD028B4FF6F3731A400283028B49
:1021C0000A4302837047F0B50C46154600220021F1
:1021D000068C4FF6FE773E400684028B018C4FF64C
:1021E0000C7632407E1C06EA03162E433243704EB4
:1021F000B0420ED06F4EB0420BD0B0F1804F08D03D
:102200006D4EB04205D06D4EB04202D06C4EB04221
:1022100006D14FF6FD76314044F00106314305E02A
:102220004FF6F576314044F00106314302830184D4
:10223000F0BD70B505460C465D4885420ED05D4840
:1022400085420BD0B5F1804F08D05B48854205D060
:102250005A48854202D05A48854200D100E000BF6A
:10226000208850B92389A28861882846FFF7ABFFF0
:10227000E1882846FFF79EFF25E0208804280AD140
:102280002389A28861882846FFF753FFE188284602
:10229000FFF742FF17E0208808280AD12389A28887
:1022A00061882846FFF7FBFEE1882846FFF7EEFE2F
:1022B00009E02389A28861882846FFF7A6FEE18805
:1022C0002846FFF795FE70BD2DE9F04105460C4606
:1022D00000260127608808B9022600E00026A088B1
:1022E000012801D1022700E001272088A0B9238915
:1022F000A28861882846FFF766FFE1882846FFF735
:1023000059FF23893A4631462846FFF712FFE188F4
:102310002846FFF701FF13E02389A2886188284639
:10232000FFF707FFE1882846FFF7F6FE23893A46C4
:1023300031462846FFF747FFE1882846FFF73AFF76
:10234000BDE8F0810A884B881A438B881A43CB88F2
:102350001A430B891A434B891A438B891A43A0F8F5
:10236000442070474FF6FF71818000210180C180B9
:102370004180017270470021018041808180C180CD
:10238000018141818181C1817047002101804180AB
:10239000012181800021C1800181704700210180DD
:1023A00041808180C180018141818181704700002D
:1023B000002C0140003401400004004000080040AF
:1023C000000C004021B1028842F00102028004E0CA
:1023D00002884FF6FE731A400280704731B1B0F8A0
:1023E000442042F40042A0F8442005E0B0F8442024
:1023F000C2F30E02A0F8442070471AB183890B4340
:10240000838102E083898B43838170478182704797
:1024100041EA0203A0F8483070471AB183890B43A0
:10242000838102E083898B438381704701894FF662
:10243000F8721140018170470A46002101894FF668
:102440008F73194011430181704730B504460D4622
:1024500029462046FFF7F0FF208940F00700208141
:1024600030BD2DE9F04104460D4616461F46602D4D
:1024700006D13B46012231462046FFF75AFE05E0D1
:102480003B46012231462046FFF79DFE2946204665
:10249000FFF7D2FF208940F007002081BDE8F081DE
:1024A00030B50C4600210189C9B24FF6FF7505EA27
:1024B0000325154325432943018130BD2DE9F04112
:1024C00005460E4617469846002443463A4631468E
:1024D0002846FFF7E5FF2C894FF6F870044044F0DA
:1024E00007044FF68F70044044F070042C81BDE85F
:1024F000F081F0B504460D4616461F463B4632466F
:1025000029462046FFF7CCFF208940F480402081F7
:10251000F0BD0185828270470A46002101884FF68E
:102520008F731940114301807047F0B50C46154672
:102530001E460021002200230189028B038C4FF6E6
:10254000F877394021434FF6FC473A4040F20117F3
:102550003A434FF6DD773B404FF6FF7707EA061721
:102560002F433B43018102830384F0BD0A460021CF
:10257000018B4FF68F7319401143018370470A4650
:102580000021018B48F6FF7319404FF6FF7303EAF1
:1025900002231943018370470A460021818B4FF6BD
:1025A0008F7319401143818370470A460021818B44
:1025B00048F6FF7319404FF6FF7303EA02231943ED
:1025C0008183704721B1028842F08002028004E0DA
:1025D00002884FF67F731A400280704721B18288CB
:1025E00042F00402828004E082884FF6FB731A40B6
:1025F0008280704721B1828842F00802828004E024
:1026000082884FF6F7731A408280704721B1828822
:1026100042F00102828004E082884FF6FE731A4085
:10262000828070470A460021018B4FF6F7731940EC
:102630001143018370470A460021018B4FF2FF735B
:1026400019404FF6FF7303EA0223194301837047D1
:102650000A460021818B4FF6F7731940114381839D
:1026600070470A460021818B4FF2FF7319404FF6E5
:10267000FF7303EA02231943818370470A4600214E
:10268000018B4FF6FB7319401143018370470A46D3
:102690000021018B4FF6FF3319404FF6FF7303EA19
:1026A00002231943018370470A460021818B4FF6AC
:1026B000FB7319401143818370470A460021818BC7
:1026C0004FF6FF3319404FF6FF7303EA0223194315
:1026D000818370470A460021018B4FF67F731940B2
:1026E0001143018370470A460021018BC1F30E019B
:1026F0004FF6FF7303EA02231943018370470A462A
:102700000021818B4FF67F731940114381837047FD
:102710000A460021818BC1F30E014FF6FF7303EAD5
:1027200002231943818370470A460021018C4FF62A
:10273000FD7319401143018470470A460021018C42
:102740004FF6F77319401143018470470A46002180
:10275000018C4FF6DF7319404FF6FF7303EA021343
:102760001943018470470A460021018C4FF67F739C
:1027700019404FF6FF7303EA0213194301847047AF
:102780000A460021018C4FF6FF5319404FF6FF73A4
:1027900003EA02231943018470470A460021018C91
:1027A0004FF2FF7319404FF6FF7303EA02231943F8
:1027B000018470470A460021018C4DF6FF731940D1
:1027C0004FF6FF7303EA023319430184704730B5B3
:1027D000002301248C40A3B2048C9C430484048C09
:1027E00002FA01F5ADB22C43048430BD30B50023AC
:1027F00004248C40A3B2048C9C430484048C02FA0D
:1028000001F5ADB22C43048430BD70B50346002001
:1028100000241846183001258D40ACB21D8CA5430C
:102820001D8409B1082909D100EB6100056825F074
:10283000700505600568154305600EE00D1FC5F3C2
:102840004E052844056825F4E045056005684FF607
:10285000FF7606EA02263543056070BD21B1028885
:1028600042F00202028004E002884FF6FD731A4033
:102870000280704721B1028842F00402028004E025
:1028800002884FF6FB731A400280704721B182889C
:1028900042F08002828004E082884FF67F731A4003
:1028A0008280704702884FF6F7731A4002800288D0
:1028B0000A430280704782884FF68F731A408280E5
:1028C00082880A438280704702894FF6F8731A4063
:1028D000028102890A430281704702894FF67F73A1
:1028E0001A40028102890A4302817047818470473D
:1028F000818570478186704701877047818770475F
:10290000A0F84010704702884FF6FF431A4002803B
:1029100002880A43028070470146888E704701464C
:10292000088F70470146888F70470146B1F8400014
:1029300070470146888C70470146088D70470246F3
:102940000020138A0B400BB1012000E000207047EB
:10295000CA430282704730B502460020002300249B
:10296000158A05EA0103958905EA010413B10CB142
:10297000012000E0002030BDCA4302827047000001
:1029800010B50446FB48844209D101218803FFF7B2
:102990009FF800214FF48040FFF79AF832E0F648A4
:1029A000844209D101214804FFF79FF800214FF428
:1029B0000030FFF79AF825E0F048844209D1012160
:1029C0008804FFF792F800214FF48020FFF78DF87C
:1029D00018E0EB48844209D10121C804FFF785F8CB
:1029E00000214FF40020FFF780F80BE0E548844217
:1029F00008D101210805FFF778F800214FF4801075
:102A0000FFF773F810BD2DE9F04786B005460E4676
:102A10000024A24600BFA1460027B08900B100BF34
:102A20002F462C8A4CF6FF700440F08804432C8219
:102A3000AC894EF6F3100440B0883189084371899F
:102A400008430443AC81AC8A4FF6FF400440B08990
:102A50000443AC8201A8FEF7B4FFC648874202D106
:102A6000DDF810A001E0DDF80CA0A88900F400401A
:102A700040B10AEBCA0000EB0A1031684900B0FB14
:102A8000F1F807E00AEBCA0000EB0A103168890090
:102A9000B0FBF1F86420B8FBF0F0040120096421D8
:102AA00001FB1089A88900F4004040B1322000EBFE
:102AB000C900B0FBF1F000F00700044308E0322049
:102AC00000EB09106421B0FBF1F000F00F000443AB
:102AD0002C8106B0BDE8F0874FF41651016000214B
:102AE0008180C18001810C21418100218181704759
:102AF00010B502460020108A4FF2FF0318400B88E1
:102B00004C8823438C882343CC882343184310826A
:102B100010BD0021018041808180C180704721B1BA
:102B2000828942F40052828104E082894DF6FF736B
:102B30001A4082817047F0B5034600240026002524
:102B4000002040F66A17B94200D100BF1846C1F311
:102B5000421401F01F06012707FA06F5012C01D1E6
:102B60000C3004E0022C01D1103000E014301AB116
:102B700007682F43076002E00768AF430760F0BDB6
:102B80001AB1838A0B43838202E0838A8B43838258
:102B90007047028A4FF6F0731A400282028A0A4393
:102BA0000282704782894FF2FF731A4082818289C4
:102BB0000A438281704721B1828942F002028281F8
:102BC00004E082894FF6FD731A4082817047028AC1
:102BD0004FF6DF731A400282028A0A43028270476C
:102BE00021B1028A42F48042028204E0028A4BF65A
:102BF000FF731A4002827047C1F308028280704757
:102C000001468888C0F308007047818941F00101BE
:102C100081817047028BD2B20283028B42EA012289
:102C200002837047028B02F47F420283028B0A43C5
:102C30000283704721B1828A42F02002828204E03E
:102C4000828A4FF6DF731A408282704721B1828AEE
:102C500042F01002828204E0828A4FF6EF731A403B
:102C60008282704721B1828A42F00802828204E0A7
:102C7000828A4FF6F7731A408282704721B18289A7
:102C800042F40042828103E08289C2F30E02828113
:102C9000704721B1828A42F40062828204E0828A13
:102CA0004FF2FF731A4082827047828A4FF6FB739D
:102CB0001A408282828A0A438282704721B1828AC4
:102CC00042F00202828204E0828A4FF6FD731A40CB
:102CD0008282704702460020B1F5007F00D100BF1C
:102CE00013880B400BB1012000E00020704701F475
:102CF0000072B2F5007F00D100BFCA430280704766
:102D000070B50246002400230025002040F66A1614
:102D1000B14200D100BFC1F3421501F01F030126EB
:102D200006FA03F3012D02D19689334006E0022D05
:102D300002D1168A334001E0968A33400C120126F4
:102D400006FA04F41688344013B10CB1012000E0F7
:102D5000002070BD10B50022002340F66A14A14285
:102D600000D100BF0A1201249440A3B2DC430480C6
:102D700010BD000000380140004400400048004001
:102D8000004C00400050004040EA01039B0703D084
:102D900009E008C9121F08C0042AFAD203E011F89A
:102DA000013B00F8013B521EF9D27047D2B201E05C
:102DB00000F8012B491EFBD270470022F6E710B540
:102DC00013460A4604461946FFF7F0FF204610BD99
:102DD000F0B480EA0102D40F4200B2EB410F02D2FC
:102DE0000246084611464A0042D0C30DDDB2C1F387
:102DF000C752AD1A202D35DAC1F3160141F4000295
:102E000004B15242C5F1200602FA06F12A411044EB
:102E1000B3EBD05F23D0C4B1012DA0EBC35009DCCC
:102E2000F0BC4FF0004202EAC352DBB200F50000F2
:102E300000F0B5BA400000F1807000EBC350A0F183
:102E4000807040EAD170490009E0490841EAC07148
:102E5000A0EBC35000F50000400800EBC350F0BCED
:102E600000F094BA6142012202EB4101001BF6E737
:102E7000F0BC704781F00041AAE780F00040A7E76E
:102E800080EA010210B502F00043400022D04A005F
:102E90001FD0010E01EB1261C0F35600C2F35602BF
:102EA00040F4000042F40002A0FB022000047F393D
:102EB000140400D0401C50EA124001D44000491EC6
:102EC000C2B20C0604EBD010401C4008802A02D08D
:102ED00003E0002010BD20F00100002900DA0020EE
:102EE000184310BD30B480EA010202F0004530F012
:102EF000004221F0004013D090B1C30DD40DC2F3B5
:102F00001601C0F31600E41A41F4000140F4000277
:102F10007D34914201D3641C00E04900002C02DAA8
:102F200030BC002070474FF400000023914201D3D1
:102F3000891A034340084FEA4101F7D151B1914248
:102F400002D14FF0004105E002D24FF0010101E053
:102F50006FF0010103EBC450284430BC00F016BAF6
:102F60002DE9FE4F804681EA0300C00F0C46009019
:102F700021F0004123F00045B8EB0200A94105D241
:102F80004046214690461C460B46024623F0004030
:102F9000104347D0270DC7F30A00C3F30A5102902C
:102FA000401A019040286BDAC3F3130040F4801BF1
:102FB0000098924620B10023D2EB030A63EB0B0B7F
:102FC00001985946C0F14002504600F0BEF906464D
:102FD0000D4650465946019A00F0C6F910EB08001C
:102FE0006141002487EA115284EAE7731A4340D012
:102FF000009A62B3019A012A4FEA075215DC001BBE
:1030000061EB02014FF0004202EA0752CDE90042B3
:10301000001C41F5801132462B4600F0FDF903B04B
:10302000BDE8F08F40462146F9E7001B61EB020145
:10303000001C41F5801300185B412018A2F5001711
:1030400047EB030140EAD570B6196D4111E06D08F8
:103050004FEA360645EAC0754FEA0752001B61EB9E
:103060000201001C41F5801149084FEA30000019A7
:10307000514132462B4603B0BDE8F04F00F0BDB9D8
:103080000098012240000023D0EB020263EBE073C2
:10309000009821464FEAE074B8EB000061EB0401B0
:1030A000E9E783F000435BE781F0004158E72DE951
:1030B000FE4F81EA030404F0004421F00041009433
:1030C0004FF0000B23F0004350EA01045ED052EAB7
:1030D00003045BD0C3F30A54C1F30A552C44A4F291
:1030E000F3340194A0FB0254C1F3130141F48011A5
:1030F000C3F3130343F4801301FB024400FB034EAC
:10310000840A970A44EA815447EA8357A4FB076874
:1031100002958D0A05FB07854FEA932C04FB0C549E
:103120002705029D4FEA065847EA1637B5EB080512
:103130006EEB070C870E920E47EA811742EA831264
:10314000A7FB0201B6EB0B0164EB00042B0D43EA75
:103150000C335E1844EB1C50DA465146E7FB020183
:10316000C5F313044FEA0B3343EA14534FEA043216
:10317000019C43EA0603A4F10C040294009CCDE9EF
:1031800000B400F049F903B0BDE8F08F002001461B
:10319000F9E72DE9F04D81EA030404F0004B21F03A
:1031A000004514464FF0000A23F0004150EA0502A2
:1031B00020D054EA01021DD0C5F30A570246C5F3D8
:1031C0001303C1F31300C1F30A5640F4801543F40E
:1031D0008013A7EB0608101BD64608F2FD3873EBE8
:1031E000050002D308F1010801E092185B41B8F133
:1031F000000F03DA00200146BDE8F08D00204FF4F7
:103200008011064684460EE0171B73EB050705D3B5
:10321000121B63EB050306434CEA010C49084FEA15
:10322000300092185B4150EA0107EDD152EA0300E9
:1032300012D082EA040083EA0501084305D0101B7E
:10324000AB4106D20122002306E000224FF00043EA
:1032500002E06FF0010253101AEB06004CEB08512C
:1032600010EB0A0041EB0B01BDE8F04D00F0C5B8D2
:1032700096230022114600F092B80EB540F2334179
:1032800002910021CDE900110A460B4600F0C4F876
:1032900003B000BD20F00040C10DC0F3160040F4A3
:1032A00000007F2901DA00207047962903DCC1F174
:1032B0009601C840704796398840704730B50B4634
:1032C000014600202022012409E021FA02F59D4256
:1032D00005D303FA02F5491B04FA02F52844151E2A
:1032E000A2F10102F1DC30BD2DE9F05F05460020BE
:1032F00092469B4688460646814640241BE0284667
:1033000041464746224600F017F953465A46C01A2E
:10331000914110D311461846224600F016F82D1A96
:1033200067EB01084F4622460120002100F00DF80E
:1033300017EB00094E41201EA4F10104DFDC4846D2
:1033400031462A464346BDE8F09F202A04DB203A56
:1033500000FA02F1002070479140C2F1200320FAE8
:1033600003F3194390407047202A06DBCB17203A1D
:1033700041FA02F043EAE07306E041FA02F3D0407A
:10338000C2F1200291400843194670470029A8BFA6
:103390007047401C490008BF20F00100704710B47E
:1033A000B0FA80FC00FA0CF050EA010404BF10BC33
:1033B000704749B1CCF1200421FA04F411FA0CF160
:1033C00018BF012121430843A3EB0C01CB1D4FEA99
:1033D00000614FEA102042BF002010BC704700EB94
:1033E000C35010440029A4BF10BC7047401C4900C2
:1033F00008BF20F0010010BC704710B5141E73F117
:10340000000408DA401C41F1000192185B411A43A4
:1034100001D120F0010010BD2DE9F04D92469B46F0
:1034200011B1B1FA81F202E0B0FA80F22032904696
:10343000FFF78BFF04460F4640EA0A0041EA0B0102
:1034400053465A46084313D0114653EA010019D097
:10345000C8F14002504600F06FF805460E4650464F
:1034600059464246FFF771FF084305D0012004E0AA
:1034700020463946BDE8F08D0020054346EAE07657
:103480002C4337430A986305E40AA0EB08000022A6
:10349000FD0A44EA47540A3002D500200146E9E714
:1034A000010510196941DDE9084500196941BDE8C8
:1034B000F04DA2E7C1F30A52C1F3130140F2FF330A
:1034C00041F480119A4202DA00200146704740F22E
:1034D00033439A42A2F2334202DC524200F02CB84B
:1034E000FFF733BF30B5041E71F1000404DB4FF069
:1034F0000044404264EB0101141E73F1000405DB3B
:103500001C464FF00043524263EB0403994208BF4C
:10351000904230BD064C074D06E0E06840F00103E4
:1035200094E8070098471034AC42F6D3FCF704FE49
:103530007C3E00089C3E0008202A04DB203A21FA49
:1035400002F00021704721FA02F3D040C2F12002BC
:1035500091400843194670470FB4054B10B503A9B5
:10356000044A029800F0EEF810BC5DF814FB00006D
:1035700023060008B40000200FB4084B10B504A9BE
:1035800002AA039800F0DEF8044602A9002000F029
:1035900070FC204610BC5DF814FB0000733E000870
:1035A00002E008C8121F08C1002AFAD1704770470C
:1035B000002001E001C1121F002AFBD1704700006A
:1035C0002DE9FF5F82B00021DDE90430020DDDF856
:1035D00040B0034318D044F61050A2F2FF324243E9
:1035E0001514119801281FD0A5EB0B00401C5FEAB1
:1035F000000A4FF000064E4FDFF83891B0465046B3
:1036000015D5CAF1000413E0119801244AA301283A
:1036100001D16FEA0B010298119AC0E90031C0E9AB
:10362000024206B0BDE8F09FCBF10000DFE70446A0
:103630000021404A491842EB0450CDE9001012E045
:10364000E00707D032463B4640464946FFF72FFD8C
:103650008046894632463B4610461946FFF727FD0D
:1036600006460F466410002CEAD1DDE90401DDE9CD
:103670000023BAF1000F06DAFFF719FD42464B4668
:10368000FFF715FD05E0FFF784FD42464B46FFF7C7
:1036900080FD04460E460022284BFFF723FF03D887
:1036A0004FF0FF30014607E00022254B204631460F
:1036B000FFF756FCFFF7FEFE102409E0002C0ADBA2
:1036C0000A220023FFF710FE039B30321A55641EB6
:1036D00050EA0102F2D1641C039AC4F111031444AC
:1036E000119A012A03D0012208430DD10AE00843B0
:1036F00004D000204FF0110B119072E7A3EB0B05E3
:103700006D1E0DE05B4504DD4FF0000205F1010583
:1037100004E003DA4FF00002A5F10105002AECD025
:1037200002981199C0E90231C0E9004579E700002B
:10373000000014400000F03F300000000000F043A3
:103740000000E03F2DE9FF4F95B09B4689460646B5
:1037500000250FE2252877D100242746F84A0121C9
:10376000059400E0044316F8013F203B01FA03F002
:103770001042F7D130782A2811D06FF02F0330781B
:10378000A0F13002092A16D8059A44F0020402EB8F
:10379000820203EB42021044761C0590EFE759F8D1
:1037A000042B0592002A03DA504244F40054059099
:1037B00044F00204761C30782E2816D116F8010F3A
:1037C00044F004042A280DD06FF02F023078A0F1C5
:1037D0003003092B09D807EB870302EB4303C71813
:1037E000761CF3E759F8047B761C30786C280FD0F0
:1037F00006DC4C2817D068280DD06A2814D104E0C4
:10380000742810D07A280FD10DE044F400140AE097
:1038100044F4801401E044F440147278824202D1EE
:1038200004F58014761C761C307866280BD013DCE7
:10383000582877D009DC002875D04528F6D04628CE
:10384000F4D047281AD19DE118E0632835D06428C8
:1038500079D0652812D195E1702873D008DC6728EB
:10386000F1D069286FD06E280DD06F2806D1B5E051
:1038700073282CD0752875D0782874D05A4617999B
:1038800090476D1C75E1C4F30250022809D003284B
:103890000DD0D9F8001004280DD00D6009F10409ED
:1038A00067E1D9F80010EA17C1E90052F6E7D9F844
:1038B00000100D80F2E70D70F0E719F8041B8DF889
:1038C000001000208DF80100EA46012003E059F8BD
:1038D00004AB4FF0FF3061074FF0000102D40DE060
:1038E00008F101018846B9420FDA8045F8DB1AF881
:1038F00008100029F4D108E008F10101884681424E
:10390000FADB1AF808100029F6D105985B46A0EBFF
:10391000080721463846179A00F094FA284400EB2D
:10392000080507E04DE029E10DE01AF8010B5A46C1
:1039300017999047B8F10108F7D25B4621463846FF
:10394000179A13E142E00A220092C4F302524FF0A8
:10395000000A022A08D059F804CB032A4FEAEC7176
:103960000AD00DE029E02AE009F1070121F0070261
:10397000F2E802C1914609E00FFA8CFC4FEAEC71C3
:10398000042A03D14FFA8CFC4FEAEC71002907DAC4
:103990000A460021DCF1000C61EB02012D2202E05D
:1039A000220504D52B228DF80420012203E0E20732
:1039B00001D02022F7E7904659E00A2102E01022C8
:1039C0000DE010214FF0000A00910BE010224FF0A3
:1039D000000A44F004040827009203E008224FF094
:1039E000000A0092C4F30252022A05D059F804CB0F
:1039F0000021032A08D009E009F1070121F007029C
:103A0000F2E802C1914605E01FFA8CFC042A01D1BC
:103A10000CF0FF0C4FF00008220728D5702806D0C4
:103A2000009B83F0100353EA0A0305D00EE0402206
:103A30008DF80420012208E05CEA010206D0302261
:103A40008DF804208DF8050002229046009B83F03B
:103A5000080353EA0A030AD15CEA010201D16207B2
:103A600005D530228DF804204FF001087F1E58281C
:103A700004D034A003900EA802900DE036A0F9E720
:103A800053466046009AFFF72FFC84460398825CF9
:103A90000298401E029002705CEA0100F0D1029888
:103AA00006A9081A00F1200A600702D524F4803420
:103AB00000E00127574502DDA7EB0A0000E00020E7
:103AC00000EB0A01009005984144401A0590E0037C
:103AD00006D45B462146179A059800F0B3F90544D1
:103AE000002706E001A85A46C05D179990476D1C53
:103AF0007F1C4745F6DBE0030CD55B462146179A51
:103B0000059800F09FF9054404E030205A461799C3
:103B100090476D1C0099481E00900029F5DC08E0D4
:103B2000029802995A460078491C029117999047C9
:103B30006D1CBAF10001AAF1010AF1DC65E1000097
:103B40000928010030313233343536373839616273
:103B50006364656600000000303132333435363737
:103B600038394142434445460000000000F058F90E
:103B70000544761C307800287FF4ECAD19B0284657
:103B8000BDE8F08F620700D4062709F1070222F092
:103B9000070CFCE80223E14603F000485FEA080C4A
:103BA00002D00FF2702C0DE05FEA045C02D50FF238
:103BB000682C07E05FEAC47C02D00FF2602C01E0C1
:103BC000AFF2700C4FF0FF3823F00043CDF850C037
:103BD00065280CD006DC452809D046281DD047288A
:103BE0003DD13DE0662818D067287ED138E000211D
:103BF000112F01DB112000E0781CCDE9000106A99E
:103C00000EA8FFF7DDFCDDE90F010E9A03910021FC
:103C1000009207F1010A04914DE04FF00040009737
:103C2000CDE9011006A90EA8FFF7CAFCDDE90F02D5
:103C300003920E9B11990022DDF80CA000930492D0
:103C400011B9791C00EB010AB7EB0A0004D4C0F1EA
:103C5000FF3007F1010A0490AAEB0700019044E04D
:103C6000012F00DA01270021112F01DD112000E0D2
:103C70003846CDE9000106A90EA8FFF7A1FCDDE951
:103C80000F010E9A0391002104910092BA46210778
:103C90000CD40399514500DA8A46BAF1010F05DDCB
:103CA000009AAAF10101515C302908D0B84202DA29
:103CB00010F1040F06DA0121CDE9011015E0AAF197
:103CC0000101E9E7002805DC049901440491AAEB0D
:103CD000000102E0411C514500DD8A460499401A6A
:103CE000401C01904FF000400290200704D401983E
:103CF000504501DBCDF8048000208DF84F0002987C
:103D00000DF14F07B0F1004F25D02B200E900298F7
:103D10004FF0020800280CDA404202902D200E904D
:103D200007E00A210298FFF7C9FA3031029007F83C
:103D3000011DB8F10001A8F10108F2DC0298002889
:103D4000EFD1791E0E980870307800F0200040F016
:103D5000450007F8020D12A8C01B00F107081498CF
:103D6000007800B1012000EB0A01019801EBE0713D
:103D700005984144401A401E0590E00306D45B4676
:103D80002146179A059800F05DF8054414980078CC
:103D900018B15A46179990476D1CE00324D55B462D
:103DA0002146179A059800F04DF805441CE0049848
:103DB000002807DBDDE90301884203DD0098405C51
:103DC000179901E0179930205A469047049805F159
:103DD0000105401C04900198401E019004D12E2042
:103DE0005A46179990476D1CBAF10001AAF1010AD1
:103DF000DDDC05E017F8010B5A46179990476D1C5A
:103E0000B8F10001A8F10108F4DC5B462146179ADD
:103E10000598ABE62D0000002B00000020000000FC
:103E20002DE9F041044600251E461746880404D4B7
:103E300005E039462020B0476D1C641EF9D52846A0
:103E4000BDE8F0812DE9F041044600251E4690466C
:103E5000C80301D5302700E02027880404D505E0F9
:103E600041463846B0476D1C641EF9D52846BDE86A
:103E7000F0810A68531C0B60107070479C3E00086C
:103E800000000020F4000000A0350008903F00086A
:103E9000F40000205C0A0000B035000800000000BB
:103EA0000000000000000000000000000000000012
:103EB0000000000000000000000000000000000002
:103EC00000000000000000000000000000000000F2
:103ED00000000000000000000000000000000000E2
:103EE00000000000000000000000000000000000D2
:103EF00000000000000000000000000000000000C2
:103F000000000000000000000000000001000000B0
:103F100000000000000000000000000000000000A1
:103F20000000000000000000000000000000000091
:103F30000000000000000000000000000000000081
:103F40000000000000000000000000000000000071
:103F50000000000000000000000000000000000061
:103F60000000000000000000000000000000000051
:103F70000102030406070809A25D4F0000000000CB
:103F800001020304010203040607080902040608EB
:0400000508000131BD
:00000001FF
