:020000040800F2
:1000000030050020B5090008ED040008EF040008E1
:10001000F3040008F7040008FB04000800000000D7
:10002000000000000000000000000000FF040008C5
:100030000105000800000000030500080505000890
:10004000CF090008CF090008CF090008CF09000830
:10005000CF090008CF090008CF090008CF09000820
:10006000CF090008CF090008CF090008CF09000810
:10007000CF090008CF090008CF090008CF09000800
:10008000CF090008CF090008CF090008CF090008F0
:10009000CF090008CF090008CF090008CF090008E0
:1000A000CF090008CF090008CF090008CF090008D0
:1000B00007050008CF090008CF090008CF0900088C
:1000C000CF090008CF090008CF090008CF090008B0
:1000D000CF090008CF090008CF090008CF090008A0
:1000E000CF090008CF090008CF090008CF09000890
:1000F000CF090008CF090008CF090008CF09000880
:10010000CF090008CF090008CF090008CF0900086F
:10011000CF090008CF090008CF090008CF0900085F
:10012000CF090008CF090008CF090008CF0900084F
:10013000DFF80CD002F0D6F900480047450100086E
:100140003005002086B04FF47A7A00F054FBC3E00B
:10015000D348006A00287CD0D2480068002878D1B3
:10016000CF480068B0FBFAF4204602F0B8F8CE4A57
:10017000C2E90201CA488068B0FBFAF4204602F0E6
:10018000AEF8C94AC2E90401C5480069B0FBFAF4F7
:10019000204602F0A4F8C44AC2E90601C0488069BA
:1001A000B0FBFAF4204602F09AF8BF4AC2E90A010D
:1001B000BB48C069B0FBFAF4204602F090F8BA4A96
:1001C000C2E908010020B6494860C8604861086279
:1001D0001046D0E9024322460020B44902F010F84C
:1001E000B34AC2E90201B048D0E9044322460020E4
:1001F000AE4902F005F8AE4AC2E90401AA48D0E9C6
:10020000064322460020A94901F0FAFFA84AC2E9A4
:1002100006011046D0E902432246D0E90261304689
:1002200001F07CFF80468946A1480146D0E904439D
:10023000D1E904612246304601F070FF42464B4648
:10024000CDE9000101F064FF00229A4BCDE90201E3
:1002500000E038E001F062FF0022974BCDE9040195
:1002600001F0CEFF954AC2E902018F48D0E904436C
:100270002246D0E90461304601F050FF80464246F4
:100280000B4600208E4901F0BBFF8C4AC2E90401F5
:100290008748D0E9024322468AA18C4802F044F9FB
:1002A0008348D0E90443224686A1894802F03CF9FC
:1002B0008249D1E90243224682A1864802F034F9FC
:1002C0000120784908608448006828B975480068AA
:1002D000012801D1804908603AE7704710B57F488E
:1002E0000078012840D17E484078E8B96C48406ADF
:1002F000012819D16A484068B0B900214FF0804008
:1003000001F01CFE0020764988804880754988806D
:1003100048800221480701F02FFD012070494870F4
:1003200002205F4948621CE05D48406A052818D1F8
:10033000800701F019FE6A49488008464088401C41
:10034000898800EB01405649886100214FF08040C8
:1003500001F012FD0221480701F020FD062050495E
:10036000486200205D4908705C484078012844D10B
:100370004B48406A022815D1400701F0F8FD584962
:10038000488008464088401C898800EB0140444969
:10039000086001204860032048620221480701F0FC
:1003A000FDFC27E03E48406A062823D14FF08040FC
:1003B00001F0DDFD4A49488008464088401C898894
:1003C00000EB01403649C8610846C0698969401A96
:1003D0003349C8610120086200204149487001206A
:1003E0002F49486200204049088000214FF080409A
:1003F00001F0D4FC00203949487038488078012841
:1004000023D12748406A03281CD14FF0804001F0D7
:10041000B1FD3349488008464088401C898800EB7C
:1004200001401F498860084680680968401A1C49D5
:1004300088600120C860042048620022082100076B
:1004400001F003FB0020254988702448C07801286A
:1004500025D11348406A04281ED1000701F08DFD04
:100460001F49488008464088401C898800EB0140AD
:100470000B490861084600698968401A08490968FB
:10048000401A07490861012048610520486200229E
:100490001021800701F0D9FA00201049C87010BD62
:1004A0003C00002024000020B800002000407F40D5
:1004B000E800002000005940000024401001002006
:1004C00000001440252E3466000000000E000020BD
:1004D000140000201A000020280000200000002046
:1004E000300000203600002020000020704700BFB0
:1004F000FEE700BFFEE700BFFEE700BFFEE7704774
:1005000070477047704710B50121880701F04BFD17
:1005100060B12948008848B928488088401C27498C
:1005200088800121880701F04FFD11E00121880733
:1005300001F039FD60B122484078012808D12048F7
:100540008088401C1E4988800121880701F03CFDFD
:100550000221480701F027FD30B101201949087038
:100560000221800701F030FD0421080701F01BFD86
:1005700030B10120134948700421800701F024FDA7
:100580000821C80601F00FFD30B101200D49887027
:100590000821800701F018FD1021880601F003FDF5
:1005A00030B101200749C8701021800701F00CFD0F
:1005B000FFF794FE10BD0000200000203000002056
:1005C000360000200000002008B54FF4E06000F085
:1005D00003FA1C208DF8000000208DF80100032094
:1005E0008DF8020001208DF80300684600F0F9F94B
:1005F00008BD00B587B00121084600F084FD4FF624
:10060000FF70ADF814004720ADF810000020ADF8E1
:100610001600ADF812008DF8180004A94FF08040C4
:1006200000F09CFE0020ADF806000120ADF80800A7
:100630000020ADF80A00ADF80C0001A94FF0804091
:1006400001F01FF90121042000F050FD04208DF875
:1006500003000120ADF800006946354800F08AFA31
:100660000020ADF8040001A94FF0804001F009F925
:1006700001220221480701F0E8F90220ADF800004C
:1006800069462B4800F076FA0420ADF8040001A971
:10069000000701F0F6F80421080701F081FC0122AF
:1006A0000421080701F0D1F90420ADF800006946E3
:1006B0001F4800F05FFA0820ADF8040001A9C00649
:1006C00001F0DFF80821C80601F06AFC01220821C8
:1006D000C80601F0BAF90820ADF8000069461448D0
:1006E00000F048FA0C20ADF8040001A94FF080405A
:1006F00001F0C7F81021880601F052FC01221021F8
:10070000880601F0A2F90121880701F049FC0122C5
:100710001146900701F099F90121880701F07AF953
:1007200007B000BD10B5FFF74FFFFFF762FF10BD28
:100730000008014008B50121102000F0D7FC4FF45B
:100740008070ADF8000010208DF8030003208DF8B4
:10075000020069461A4800F00DFA4FF480711848FB
:1007600000F0B5FA08BD08B50121402000F0BEFC3C
:100770002020ADF8000048208DF80300694611489C
:1007800000F0F8F908BD70B504460D46294620462C
:1007900000F083FA012810D12946204600F07DFAA6
:1007A000012808D100BF2946204600F076FA01282A
:1007B000F9D0012070BD0020FCE70020FAE700001E
:1007C000000801400018014008B50121042000F094
:1007D0008DFC0320ADF8000004208DF803000320F9
:1007E0008DF802006946094800F0C4F90321074862
:1007F00000F06DFA08BD10B500F00AF8FFF792FF9F
:10080000FFF798FFFFF7E0FF10BD00000008014070
:100810000CB56048006840F001005E490860084679
:1008200040685D4908405B4948600846406820F4DC
:10083000FE0048604FF41F00886000200190009087
:100840000846006840F48030086000BF51480068E6
:1008500000F4003000900198401C0190009818B9F5
:100860000198B0F5A06FF1D14A48006800F400305B
:10087000002843D04948006840F01000474908600C
:100880000846006820F0030008600846006840F051
:10089000020008603F4840683E494860084640689A
:1008A00048600846406840F48060486008464068F8
:1008B00020F47C1048600846406840F4E810486026
:1008C0000846006840F08070086000BF314800684A
:1008D00000F000700028F9D02E48406820F0030096
:1008E0002C4948600846406840F00200486000BF5C
:1008F0002848406800F00C000828F9D14FF000604B
:10090000274908600CBD10B5002100200022214BB2
:100910005B6803F00C0121B1042906D0082928D115
:1009200007E0204B204C236027E01E4B1E4C236029
:1009300023E0184B5B6803F47010164B5B6803F4FC
:100940008032022303EB904022B9184B4343164CEC
:1009500023600DE00F4B5B6803F4003323B1134BAE
:100960004343114C236003E00E4B43430E4C236082
:1009700003E00C4B0C4C236000BF00BF054B5B68D1
:10098000C3F303130A4CE15C074B1B68CB40064CD6
:10099000236010BD001002400000FFF8002002405C
:1009A00008ED00E000127A007400002000093D000C
:1009B000640000200648804706480047FEE7FEE73F
:1009C000FEE7FEE7FEE7FEE7FEE7FEE7FEE7FEE7FF
:1009D000110800083101000831490143314A116012
:1009E000704770B5002100230F22C47804B32D4C4A
:1009F000246804F4E064C4F5E064210AC1F104034E
:100A0000CA40447804FA03F1847814402143090170
:100A1000254C0678A155047804F01F050124AC404C
:100A200005786D11AD0005F1E025C5F8004109E03C
:100A3000047804F01F050124AC401C4D06787611A3
:100A400045F8264070BD1A4A0A400243154B1B1F49
:100A50001A60704739B1134A121D12680243114BD4
:100A60001B1D1A6006E00F4A121D126882430D4BCF
:100A70001B1D1A607047042808D14FF0E021096956
:100A800041F004014FF0E022116107E04FF0E02156
:100A9000096921F004014FF0E02211617047000064
:100AA0000000FA050CED00E000E400E080E100E069
:100AB00080FFFF1F10B50446CC48844208D10121B5
:100AC000042000F02DFB0021042000F029FB46E06B
:100AD000C748844208D10121082000F021FB0021F1
:100AE000082000F01DFB3AE0C248844208D10121F1
:100AF000102000F015FB0021102000F011FB2EE06B
:100B0000BD48844208D10121202000F009FB0021CA
:100B1000202000F005FB22E0B848844208D10121E2
:100B2000402000F0FDFA0021402000F0F9FA16E024
:100B3000B348844208D10121802000F0F1FA00215D
:100B4000802000F0EDFA0AE0AE48844207D101218E
:100B5000801500F0E5FA0021A01500F0E1FA10BDC3
:100B600010B50121084600F0DBFA0021012000F059
:100B7000D7FA10BD2DE9F0410246002500260020DD
:100B800000230024002791F803C00CF00F0591F812
:100B900003C00CF0100CBCF1000F03D091F802C0A0
:100BA0004CEA050591F800C0BCF1000F31D0146883
:100BB00000202BE04FF0010C0CFA00F3B1F800C05C
:100BC0000CEA03069E4220D183004FF00F0C0CFA72
:100BD00003F7BC4305FA03FC4CEA040491F803C094
:100BE000BCF1280F06D14FF0010C0CFA00FCC2F842
:100BF00014C00AE091F803C0BCF1480F05D14FF0D2
:100C0000010C0CFA00FCC2F810C0401C0828D1D31B
:100C10001460B1F800C0BCF1FF0F34DD546800204F
:100C20002EE000F1080C4FF0010808FA0CF3B1F8BF
:100C300000C00CEA03069E4221D183004FF00F0C46
:100C40000CFA03F7BC4305FA03FC4CEA040491F8E0
:100C500003C0BCF1280F05D100F1080C08FA0CF80C
:100C6000C2F8148091F803C0BCF1480F07D100F11D
:100C7000080C4FF0010808FA0CF8C2F81080401C6C
:100C80000828CED35460BDE8F0814FF6FF71018093
:100C9000022181700421C1707047024600209368D0
:100CA0000B400BB1012000E000207047014688682E
:100CB00080B2704702460020D3680B400BB1012080
:100CC00000E0002070470146C86880B270470161AB
:100CD0007047416170470AB1016100E041617047AE
:100CE000C16070474FF480320A4382618161826142
:100CF00082698269704702460020434B18684FF6AC
:100D00008073184040EA021008433F4B1860704758
:100D10003E49C8617047F0B50A460023002400210F
:100D2000002500F00046B6F1004F02D1364EF169C1
:100D300001E0354E7168C0F3034583B200F44016FC
:100D4000B6F5401F08D121F070612F4E766826F06D
:100D500070662D4F7E6012E000F48016B6F5801F9D
:100D600006D1032606FA05F4A14341F0706106E0BE
:100D7000460D360103FA06F6B14341F0706122B127
:100D8000460D360103FA06F6314300F00046B6F18F
:100D9000004F02D11C4EF16101E01B4E7160F0BDAD
:100DA00030B500228B071C0F0F2303FA04F2164BF9
:100DB00008338C1053F824309343134C08348D10AF
:100DC00044F8253023468C1053F824308C07240F28
:100DD00000FA04F423430C4C08348D1044F82530F9
:100DE00030BD0A49DC31086070470000000801404E
:100DF000000C0140001001400014014000180140A7
:100E0000001C014000200140000001400000204281
:100E1000DF48006840F00100DD490860084640688E
:100E2000DC490840DA49486008460068DA49084069
:100E3000D74908600846006820F48020086008460A
:100E4000406820F4FE0048604FF41F00886070473F
:100E5000CF49096821F48031CD4A116011460968F3
:100E600021F480211160B0F5803F03D0B0F5802FD0
:100E70000ED106E0C649096841F48031C44A1160C8
:100E800007E0C349096841F4A021C14A116000E0AC
:100E900000BF00BF704710B50146002200230020AC
:100EA0004A11012A02D1BA4C236806E0022A02D173
:100EB000B74C236A01E0B64C636A01F01F020124BB
:100EC00094401C400CB1012000E0002010BD38B55A
:100ED000002000900024002500BF3120FFF7DBFF39
:100EE00005460098401C00900098B0F5A06F01D016
:100EF000002DF2D03120FFF7CEFF08B1012400E031
:100F00000024204638BD01460020A14A106820F088
:100F1000F80040EAC10010607047A04908607047BF
:100F2000024600209A4B586820F47C1042EA0103E4
:100F30001843974B586070479849086670470146B8
:100F40000020934A506820F0030008435060704727
:100F50008F48406800F00C007047014600208C4A22
:100F6000506820F0F00008435060704701460020B0
:100F7000874A506820F4E06008435060704701469B
:100F80000020834A506820F4605040EAC10050605D
:100F9000704729B17E4A527A02437D4B5A7204E06F
:100FA0007B4A527A82437A4B5A7270477B49D831D6
:100FB0000860704701460020754A506820F44040A0
:100FC0000843506070470021714A20321170704A06
:100FD00082F82010012802D004280AD104E001215F
:100FE0006B4A2032117005E00521694A20321170E8
:100FF00000E000BF00BF704769490860704764495E
:10100000096A0143624A11627047654944390860C0
:10101000704730B500210022002400235C4D6D682C
:1010200005F00C0121B1042905D0082923D105E0E0
:101030005C4D056022E05B4D05601FE0544D6D681E
:1010400005F47012524D6D6805F48034022505EBED
:1010500092421CB9544D554305600BE04C4D6D68F0
:1010600005F400351DB1504D5543056002E04D4D6E
:101070005543056002E04B4D056000BF00BF444D85
:101080006D6805F0F0010909484D6B5C0568DD40AD
:1010900045603F4D6D6805F4E061090A434D6B5CA6
:1010A0004568DD4085603A4D6D6805F46051C90AB8
:1010B0003E4D6B5C4568DD40C560354D6D6805F49F
:1010C0004041890B3A4D6B5CC568B5FBF3F5056192
:1010D00030BD29B12E4A526902432D4B5A6104E0BA
:1010E0002B4A526982432A4B5A61704729B1284AD8
:1010F00092690243264B9A6104E0254A9269824331
:10110000234B9A61704729B1214AD2690243204B8F
:10111000DA6104E01E4AD26982431D4BDA617047EE
:1011200029B11B4AD2680243194BDA6004E0184A1D
:10113000D2688243164BDA60704729B1144A1269AB
:101140000243134B1A6104E0114A12698243104BA7
:101150001A61704712494039086070470F49C864E6
:1011600070470B49C87170470948406A40F0807069
:1011700007494862704701460020054A92680A40C4
:101180000AB1012000E000207047014988727047D1
:10119000001002400000FFF8FFFFF6FE0000424290
:1011A0008004424200127A0000093D0078000020CD
:1011B0008800002010B50446FE48844208D1012171
:1011C000C014FFF7ADFF0021E014FFF7A9FFC4E052
:1011D000B4F1804F08D101210846FFF7AEFF00218E
:1011E0000120FFF7AAFFB8E0F348844208D10121AB
:1011F0000220FFF7A2FF00210220FFF79EFFACE0D4
:10120000EE48844208D101210420FFF796FF002117
:101210000420FFF792FFA0E0E948844208D10121B1
:101220000820FFF78AFF00210820FFF786FF94E0DF
:10123000E448844208D101211020FFF77EFF0021FD
:101240001020FFF77AFF88E0DF48844208D10121AF
:101250002020FFF772FF00212020FFF76EFF7CE0C7
:10126000DA48844208D101214014FFF759FF0021D8
:101270006014FFF755FF70E0D548844209D1012181
:10128000C804FFF74DFF00214FF40020FFF748FF8F
:1012900063E0D048844209D101210805FFF740FFEF
:1012A00000214FF48010FFF73BFF56E0CA4884420C
:1012B00009D101214805FFF733FF00214FF4001049
:1012C000FFF72EFF49E0C548844208D101214020A4
:1012D000FFF733FF00214020FFF72FFF3DE0C0481C
:1012E000844208D101218020FFF727FF00218020C0
:1012F000FFF723FF31E0BB48844208D1012180156C
:10130000FFF71BFF0021A015FFF717FF25E0B648E8
:10131000844209D101210804FFF702FF00214FF4A4
:101320008030FFF7FDFE18E0B048844209D101216A
:101330004804FFF7F5FE00214FF40030FFF7F0FE00
:101340000BE0AB48844208D101218804FFF7E8FE96
:1013500000214FF48020FFF7E3FE10BD0022028839
:10136000944B98420ED0994B98420BD0B0F1804FDD
:1013700008D0914B984205D0904B984202D0904BA8
:10138000984204D14FF68F731A404B881A438D4B05
:10139000984207D08C4B984204D04FF6FF431A4036
:1013A000CB881A4302808B8883850B880385814B09
:1013B00098420BD0854B984208D08B4B984205D071
:1013C0008A4B984202D08A4B984201D10B7A03860D
:1013D00001238382704770B5002400220023058C0E
:1013E0004FF6FE7635400584028C8388048B4FF6D9
:1013F0008F752C40B51E2C400D882C43751E2A403D
:101400000D892A434D882A436A4DA8420BD06F4D5F
:10141000A84208D0744DA84205D0744DA84202D00D
:10142000734DA84213D14FF6F7752A404D892A43D0
:101430004FF6FB752A408D882A434FF6FF652B40F7
:101440004FF6FF552B408D892B43CD892B4383804D
:101450000483CD888586028470BD70B50024002287
:101460000023058C4FF6EF7635400584028C838887
:10147000048B48F6FF752C404FF6FF452C400D8835
:101480004FF6FF7606EA05252C434FF6DF752A4016
:101490000D8906EA05152A434D8806EA05152A43F3
:1014A000444DA84202D0494DA8421DD14FF67F7548
:1014B0002A404D894FF6FF7606EA05152A434FF676
:1014C000BF752A408D8806EA05152A434FF6FF3579
:1014D0002B404FF2FF752B408D8906EA85052B4383
:1014E000CD8906EA85052B4383800483CD88058753
:1014F000028470BD70B5002400220023058C4FF6D5
:10150000FF6635400584028C8388848B4FF68F7587
:101510002C404FF6FC752C400D882C434FF6FF55A0
:101520002A400D894FF6FF7606EA05252A434D88A5
:1015300006EA05252A431F4DA84202D0234DA842A2
:101540001DD14FF2FF752A404D894FF6FF7606EA0E
:1015500005252A434FF6FF352A408D8806EA0525E2
:101560002A434EF6FF752B404DF6FF752B408D89B3
:1015700006EA05152B43CD8906EA05152B43838022
:101580008483CD888587028470BD70B500220023D6
:101590000024058C4EF6FF7635400584038C848844
:1015A000828B48F6FF752A404FF6FF452A400D888A
:1015B00020E00000002C0140000400400008004032
:1015C000000C0040001000400014004000340140B6
:1015D000004C014000500140005401400018004000
:1015E000001C004000200040004001400044014039
:1015F000004801404FF6FF7606EA05252A434DF6DE
:10160000FF752B400D8906EA05352B434D8806EA08
:1016100005352B43FA4DA84202D0FA4DA84208D115
:101620004BF6FF752C408D894FF6FF7606EA85153F
:101630002C4384808283CD88A0F84050038470BD01
:10164000828B4FF2FF331A408283828B4FF6FF73F7
:1016500003EA01231A4382837047F0B50C4615460E
:10166000002200210026078C4EF6FF7C07EA0C07BB
:101670000784828B018C4FF6FF7707EA043640F629
:10168000FF473A404FF6FF7707EA05273A434FF600
:10169000FF7707EA03373A43D94FB8420ED0D94F04
:1016A000B8420BD0B0F1804F08D0D74FB84205D028
:1016B000D64FB84202D0D64FB84206D14DF6FF778A
:1016C000394046F48057394305E047F6FF57394023
:1016D00044F48057394382830184F0BD828B4FF6F6
:1016E000F3731A408283828B0A4382837047F0B57A
:1016F0000C461546002200210026078C4FF6FF6C91
:1017000007EA0C070784828B018C4FF6FF7707EA04
:1017100004264FF60C773A404FF6FF7707EA031797
:101720002F433A43B64FB8420ED0B64FB8420BD013
:10173000B0F1804F08D0B44FB84205D0B34FB84293
:1017400002D0B34FB84206D14FF6FF57394046F4A6
:101750008077394305E04FF2FF57394044F48077F2
:10176000394382830184F0BD028B4FF2FF331A406C
:101770000283028B4FF6FF7303EA01231A430283AD
:101780007047F0B50C461546002200210026078C54
:101790004FF6EF7C07EA0C070784028B018C4FF6AB
:1017A000FF7707EA041640F6FF473A404FF6FF7707
:1017B00007EA03373A434FF6FF7707EA05273A432C
:1017C0008F4FB8420ED08F4FB8420BD0B0F1804F40
:1017D00008D08D4FB84205D08C4FB84202D08C4F04
:1017E000B84206D14FF6DF77394046F0100739434B
:1017F00005E04FF65F77394044F010073943028324
:101800000184F0BD028B4FF6F3731A400283028B02
:101810000A4302837047F0B50C46154600220021AA
:10182000068C4FF6FE773E400684028B018C4FF605
:101830000C7632407E1C06EA03162E433243704E6D
:10184000B0420ED06F4EB0420BD0B0F1804F08D0F6
:101850006D4EB04205D06D4EB04202D06C4EB042DB
:1018600006D14FF6FD76314044F00106314305E0E4
:101870004FF6F576314044F001063143028301848E
:10188000F0BD70B505460C465D4885420ED05D48FA
:1018900085420BD0B5F1804F08D05B48854205D01A
:1018A0005A48854202D05A48854200D100E000BF24
:1018B000208850B92389A28861882846FFF7ABFFAA
:1018C000E1882846FFF79EFF25E0208804280AD1FA
:1018D0002389A28861882846FFF753FFE1882846BC
:1018E000FFF742FF17E0208808280AD12389A28841
:1018F00061882846FFF7FBFEE1882846FFF7EEFEE9
:1019000009E02389A28861882846FFF7A6FEE188BE
:101910002846FFF795FE70BD2DE9F04105460C46BF
:1019200000260127608808B9022600E00026A0886A
:10193000012801D1022700E001272088A0B92389CE
:10194000A28861882846FFF766FFE1882846FFF7EE
:1019500059FF23893A4631462846FFF712FFE188AE
:101960002846FFF701FF13E02389A28861882846F3
:10197000FFF707FFE1882846FFF7F6FE23893A467E
:1019800031462846FFF747FFE1882846FFF73AFF30
:10199000BDE8F0810A884B881A438B881A43CB88AC
:1019A0001A430B891A434B891A438B891A43A0F8AF
:1019B000442070474FF6FF71818000210180C18073
:1019C0004180017270470021018041808180C18087
:1019D000018141818181C181704700210180418065
:1019E000012181800021C180018170470021018097
:1019F00041808180C18001814181818170470000E7
:101A0000002C014000340140000400400008004068
:101A1000000C004021B1028842F00102028004E083
:101A200002884FF6FE731A400280704731B1B0F859
:101A3000442042F40042A0F8442005E0B0F84420DD
:101A4000C2F30E02A0F8442070471AB183890B43F9
:101A5000838102E083898B43838170478182704751
:101A600041EA0203A0F8483070471AB183890B435A
:101A7000838102E083898B438381704701894FF61C
:101A8000F8721140018170470A46002101894FF622
:101A90008F73194011430181704730B504460D46DC
:101AA00029462046FFF7F0FF208940F007002081FB
:101AB00030BD2DE9F04104460D4616461F46602D07
:101AC00006D13B46012231462046FFF75AFE05E08B
:101AD0003B46012231462046FFF79DFE294620461F
:101AE000FFF7D2FF208940F007002081BDE8F08198
:101AF00030B50C4600210189C9B24FF6FF7505EAE1
:101B00000325154325432943018130BD2DE9F041CB
:101B100005460E4617469846002443463A46314647
:101B20002846FFF7E5FF2C894FF6F870044044F093
:101B300007044FF68F70044044F070042C81BDE818
:101B4000F081F0B504460D4616461F463B46324628
:101B500029462046FFF7CCFF208940F480402081B1
:101B6000F0BD0185828270470A46002101884FF648
:101B70008F731940114301807047F0B50C4615462C
:101B80001E460021002200230189028B038C4FF6A0
:101B9000F877394021434FF6FC473A4040F20117AD
:101BA0003A434FF6DD773B404FF6FF7707EA0617DB
:101BB0002F433B43018102830384F0BD0A46002189
:101BC000018B4FF68F7319401143018370470A460A
:101BD0000021018B48F6FF7319404FF6FF7303EAAB
:101BE00002231943018370470A460021818B4FF677
:101BF0008F7319401143818370470A460021818BFE
:101C000048F6FF7319404FF6FF7303EA02231943A6
:101C10008183704721B1028842F08002028004E093
:101C200002884FF67F731A400280704721B1828884
:101C300042F00402828004E082884FF6FB731A406F
:101C40008280704721B1828842F00802828004E0DD
:101C500082884FF6F7731A408280704721B18288DC
:101C600042F00102828004E082884FF6FE731A403F
:101C7000828070470A460021018B4FF6F7731940A6
:101C80001143018370470A460021018B4FF2FF7315
:101C900019404FF6FF7303EA02231943018370478B
:101CA0000A460021818B4FF6F77319401143818357
:101CB00070470A460021818B4FF2FF7319404FF69F
:101CC000FF7303EA02231943818370470A46002108
:101CD000018B4FF6FB7319401143018370470A468D
:101CE0000021018B4FF6FF3319404FF6FF7303EAD3
:101CF00002231943018370470A460021818B4FF666
:101D0000FB7319401143818370470A460021818B80
:101D10004FF6FF3319404FF6FF7303EA02231943CE
:101D2000818370470A460021018B4FF67F7319406B
:101D30001143018370470A460021018BC1F30E0154
:101D40004FF6FF7303EA02231943018370470A46E3
:101D50000021818B4FF67F731940114381837047B7
:101D60000A460021818BC1F30E014FF6FF7303EA8F
:101D700002231943818370470A460021018C4FF6E4
:101D8000FD7319401143018470470A460021018CFC
:101D90004FF6F77319401143018470470A4600213A
:101DA000018C4FF6DF7319404FF6FF7303EA0213FD
:101DB0001943018470470A460021018C4FF67F7356
:101DC00019404FF6FF7303EA021319430184704769
:101DD0000A460021018C4FF6FF5319404FF6FF735E
:101DE00003EA02231943018470470A460021018C4B
:101DF0004FF2FF7319404FF6FF7303EA02231943B2
:101E0000018470470A460021018C4DF6FF7319408A
:101E10004FF6FF7303EA023319430184704730B56C
:101E2000002301248C40A3B2048C9C430484048CC2
:101E300002FA01F5ADB22C43048430BD30B5002365
:101E400004248C40A3B2048C9C430484048C02FAC6
:101E500001F5ADB22C43048430BD70B503460020BB
:101E600000241846183001258D40ACB21D8CA543C6
:101E70001D8409B1082909D100EB6100056825F02E
:101E8000700505600568154305600EE00D1FC5F37C
:101E90004E052844056825F4E045056005684FF6C1
:101EA000FF7606EA02263543056070BD21B102883F
:101EB00042F00202028004E002884FF6FD731A40ED
:101EC0000280704721B1028842F00402028004E0DF
:101ED00002884FF6FB731A400280704721B1828856
:101EE00042F08002828004E082884FF67F731A40BD
:101EF0008280704702884FF6F7731A40028002888A
:101F00000A430280704782884FF68F731A4082809E
:101F100082880A438280704702894FF6F8731A401C
:101F2000028102890A430281704702894FF67F735A
:101F30001A40028102890A430281704781847047F6
:101F40008185704781867047018770478187704718
:101F5000A0F84010704702884FF6FF431A400280F5
:101F600002880A43028070470146888E7047014606
:101F7000088F70470146888F70470146B1F84000CE
:101F800070470146888C70470146088D70470246AD
:101F90000020138A0B400BB1012000E000207047A5
:101FA000CA430282704730B5024600200023002455
:101FB000158A05EA0103958905EA010413B10CB1FC
:101FC000012000E0002030BDCA43028270472DE9A5
:101FD000FE4F804681EA0300C00F0C46009021F0BE
:101FE000004123F00045B8EB0200A94105D240466C
:101FF000214690461C460B46024623F00040104303
:1020000047D0270DC7F30A00C3F30A510290401AC4
:10201000019040286BDAC3F3130040F4801B009852
:10202000924620B10023D2EB030A63EB0B0B01981D
:102030005946C0F14002504600F0A5F906460D464B
:1020400050465946019A00F0ADF910EB0800614185
:10205000002487EA115284EAE7731A4340D0009AB9
:1020600062B3019A012A4FEA075215DC001B61EBAB
:1020700002014FF0004202EA0752CDE90042001C83
:1020800041F5801132462B4600F0ADF903B0BDE8B2
:10209000F08F40462146F9E7001B61EB0201001C6E
:1020A00041F5801300185B412018A2F5001747EB9B
:1020B000030140EAD570B6196D4111E06D084FEA91
:1020C000360645EAC0754FEA0752001B61EB020174
:1020D000001C41F5801149084FEA300000195141B8
:1020E00032462B4603B0BDE8F04F00F06DB90098C2
:1020F000012240000023D0EB020263EBE073009862
:1021000021464FEAE074B8EB000061EB0401E9E717
:1021100083F000435BE781F0004158E72DE9FE4F73
:1021200081EA030404F0004421F0004100944FF0E0
:10213000000B23F0004350EA01045ED052EA03048E
:102140005BD0C3F30A54C1F30A552C44A4F2F33410
:102150000194A0FB0254C1F3130141F48011C3F3B5
:10216000130343F4801301FB024400FB034E840A73
:10217000970A44EA815447EA8357A4FB076802950B
:102180008D0A05FB07854FEA932C04FB0C542705A9
:10219000029D4FEA065847EA1637B5EB08056EEB85
:1021A000070C870E920E47EA811742EA8312A7FBBB
:1021B0000201B6EB0B0164EB00042B0D43EA0C3378
:1021C0005E1844EB1C50DA465146E7FB0201C5F3AA
:1021D00013044FEA0B3343EA14534FEA0432019CD1
:1021E00043EA0603A4F10C040294009CCDE900B478
:1021F00000F0F9F803B0BDE8F08F00200146F9E7E0
:102200002DE9F04D81EA030404F0004B21F0004574
:1022100014464FF0000A23F0004150EA050220D096
:1022200054EA01021DD0C5F30A570246C5F3130351
:10223000C1F31300C1F30A5640F4801543F4801330
:10224000A7EB0608101BD64608F2FD3873EB050015
:1022500002D308F1010801E092185B41B8F1000FC8
:1022600003DA00200146BDE8F08D00204FF4801114
:10227000064684460EE0171B73EB050705D3121BB9
:1022800063EB050306434CEA010C49084FEA3000B2
:1022900092185B4150EA0107EDD152EA030012D0D7
:1022A00082EA040083EA0501084305D0101BAB4114
:1022B00006D20122002306E000224FF0004302E094
:1022C0006FF0010253101AEB06004CEB085110EBB3
:1022D0000A0041EB0B01BDE8F04D00F075B80EB5FA
:1022E00040F2334102910021CDE900110A460B462C
:1022F00000F079F803B000BD30B50B460146002070
:102300002022012409E021FA02F59D4205D303FAB7
:1023100002F5491B04FA02F52844151EA2F1010238
:10232000F1DC30BD2DE9F05F0546002092469B466A
:1023300088460646814640241BE0284641464746DB
:10234000224600F0E1F853465A46C01A914110D394
:1023500011461846224600F016F82D1A67EB0108C0
:102360004F4622460120002100F00DF817EB00092E
:102370004E41201EA4F10104DFDC484631462A46C6
:102380004346BDE8F09F202A04DB203A00FA02F120
:10239000002070479140C2F1200320FA03F3194353
:1023A00090407047202A06DBCB17203A41FA02F012
:1023B00043EAE07306E041FA02F3D040C2F12002A2
:1023C000914008431946704710B5141E73F100047C
:1023D00008DA401C41F1000192185B411A4301D117
:1023E00020F0010010BD2DE9F04D92469B4611B141
:1023F000B1FA81F202E0B0FA80F220329046FFF7A3
:10240000C2FF04460F4640EA0A0041EA0B01534668
:102410005A46084313D0114653EA010019D0C8F1B7
:102420004002504600F070F805460E4650465946A8
:102430004246FFF7A8FF084305D0012004E02046EC
:102440003946BDE8F08D0020054346EAE0762C438E
:1024500037430A986305E40AA0EB08000022FD0A4E
:1024600044EA47540A3002D500200146E9E7010555
:1024700010196941DDE9084500196941BDE8F04DD1
:10248000A2E7C1F30A52C1F3130140F2FF3341F452
:1024900080119A4202DA00200146704740F233432D
:1024A0009A42A2F2334202DC524200F02DB8FFF70A
:1024B0006ABF000030B5041E71F1000404DB4FF068
:1024C0000044404264EB0101141E73F1000405DB7B
:1024D0001C464FF00043524263EB0403994208BF8D
:1024E000904230BD064C074D06E0E06840F0010325
:1024F00094E8070098471034AC42F6D3FDF71CFE71
:102500002C2E00084C2E0008202A04DB203A21FA49
:1025100002F00021704721FA02F3D040C2F12002FC
:1025200091400843194670470FB4084B10B504A9F1
:1025300002AA039800F0DEF8044602A9002000F089
:1025400070FC204610BC5DF814FB0000232E000830
:1025500002E008C8121F08C1002AFAD1704770476C
:10256000002001E001C1121F002AFBD170470000CA
:102570002DE9FF5F82B00021DDE90430020DDDF8B6
:1025800040B0034318D044F61050A2F2FF32424349
:102590001514119801281FD0A5EB0B00401C5FEA11
:1025A000000A4FF000064E4FDFF83891B046504613
:1025B00015D5CAF1000413E0119801244AA301289B
:1025C00001D16FEA0B010298119AC0E90031C0E90C
:1025D000024206B0BDE8F09FCBF10000DFE7044601
:1025E0000021404A491842EB0450CDE9001012E0A6
:1025F000E00707D032463B4640464946FFF78EFD8E
:102600008046894632463B4610461946FFF786FD0E
:1026100006460F466410002CEAD1DDE90401DDE92D
:102620000023BAF1000F06DAFFF778FD42464B4669
:10263000FFF774FD05E0FFF7E3FD42464B46FFF769
:10264000DFFD04460E460022284BFFF733FF03D878
:102650004FF0FF30014607E00022254B204631466F
:10266000FFF7B5FCFFF70DFF102409E0002C0ADB93
:102670000A220023FFF756FE039B30321A55641ED0
:1026800050EA0102F2D1641C039AC4F1110314440C
:10269000119A012A03D0012208430DD10AE0084310
:1026A00004D000204FF0110B119072E7A3EB0B0543
:1026B0006D1E0DE05B4504DD4FF0000205F10105E4
:1026C00004E003DA4FF00002A5F10105002AECD086
:1026D00002981199C0E90231C0E9004579E700008C
:1026E000000014400000F03F300000000000F04304
:1026F0000000E03F2DE9FF4F95B09B468946064616
:1027000000250FE2252877D100242746F84A012129
:10271000059400E0044316F8013F203B01FA03F062
:102720001042F7D130782A2811D06FF02F0330787B
:10273000A0F13002092A16D8059A44F0020402EBEF
:10274000820203EB42021044761C0590EFE759F831
:10275000042B0592002A03DA504244F400540590F9
:1027600044F00204761C30782E2816D116F8010F9A
:1027700044F004042A280DD06FF02F023078A0F125
:102780003003092B09D807EB870302EB4303C71873
:10279000761CF3E759F8047B761C30786C280FD050
:1027A00006DC4C2817D068280DD06A2814D104E024
:1027B000742810D07A280FD10DE044F400140AE0F8
:1027C00044F4801401E044F440147278824202D14F
:1027D00004F58014761C761C307866280BD013DC48
:1027E000582877D009DC002875D04528F6D046282F
:1027F000F4D047281AD19DE118E0632835D0642829
:1028000079D0652812D195E1702873D008DC67284B
:10281000F1D069286FD06E280DD06F2806D1B5E0B1
:1028200073282CD0752875D0782874D05A461799FB
:1028300090476D1C75E1C4F30250022809D00328AB
:102840000DD0D9F8001004280DD00D6009F104094D
:1028500067E1D9F80010EA17C1E90052F6E7D9F8A4
:1028600000100D80F2E70D70F0E719F8041B8DF8E9
:10287000001000208DF80100EA46012003E059F81D
:1028800004AB4FF0FF3061074FF0000102D40DE0C0
:1028900008F101018846B9420FDA8045F8DB1AF8E1
:1028A00008100029F4D108E008F1010188468142AE
:1028B000FADB1AF808100029F6D105985B46A0EB60
:1028C000080721463846179A00F094FA284400EB8E
:1028D000080507E04DE029E10DE01AF8010B5A4622
:1028E00017999047B8F10108F7D25B462146384660
:1028F000179A13E142E00A220092C4F302524FF009
:10290000000A022A08D059F804CB032A4FEAEC71D6
:102910000AD00DE029E02AE009F1070121F00702C1
:10292000F2E802C1914609E00FFA8CFC4FEAEC7123
:10293000042A03D14FFA8CFC4FEAEC71002907DA24
:102940000A460021DCF1000C61EB02012D2202E0BD
:10295000220504D52B228DF80420012203E0E20792
:1029600001D02022F7E7904659E00A2102E0102228
:102970000DE010214FF0000A00910BE010224FF003
:10298000000A44F004040827009203E008224FF0F4
:10299000000A0092C4F30252022A05D059F804CB6F
:1029A0000021032A08D009E009F1070121F00702FC
:1029B000F2E802C1914605E01FFA8CFC042A01D11D
:1029C0000CF0FF0C4FF00008220728D5702806D025
:1029D000009B83F0100353EA0A0305D00EE0402267
:1029E0008DF80420012208E05CEA010206D03022C2
:1029F0008DF804208DF8050002229046009B83F09C
:102A0000080353EA0A030AD15CEA010201D1620712
:102A100005D530228DF804204FF001087F1E58287C
:102A200004D034A003900EA802900DE036A0F9E780
:102A300053466046009AFFF775FC84460398825C13
:102A40000298401E029002705CEA0100F0D10298E8
:102A500006A9081A00F1200A600702D524F4803480
:102A600000E00127574502DDA7EB0A0000E0002047
:102A700000EB0A01009005984144401A0590E003DC
:102A800006D45B462146179A059800F0B3F9054431
:102A9000002706E001A85A46C05D179990476D1CB3
:102AA0007F1C4745F6DBE0030CD55B462146179AB1
:102AB000059800F09FF9054404E030205A46179924
:102AC00090476D1C0099481E00900029F5DC08E035
:102AD000029802995A460078491C0291179990472A
:102AE0006D1CBAF10001AAF1010AF1DC65E10000F8
:102AF00009280100303132333435363738396162D4
:102B00006364656600000000303132333435363797
:102B100038394142434445460000000000F058F96E
:102B20000544761C307800287FF4ECAD19B02846B7
:102B3000BDE8F08F620700D4062709F1070222F0F2
:102B4000070CFCE80223E14603F000485FEA080CAA
:102B500002D00FF2702C0DE05FEA045C02D50FF298
:102B6000682C07E05FEAC47C02D00FF2602C01E021
:102B7000AFF2700C4FF0FF3823F00043CDF850C097
:102B800065280CD006DC452809D046281DD04728EA
:102B90003DD13DE0662818D067287ED138E000217D
:102BA000112F01DB112000E0781CCDE9000106A9FE
:102BB0000EA8FFF7DDFCDDE90F010E9A039100215D
:102BC000009207F1010A04914DE04FF00040009798
:102BD000CDE9011006A90EA8FFF7CAFCDDE90F0236
:102BE00003920E9B11990022DDF80CA00093049231
:102BF00011B9791C00EB010AB7EB0A0004D4C0F14B
:102C0000FF3007F1010A0490AAEB0700019044E0AD
:102C1000012F00DA01270021112F01DD112000E032
:102C20003846CDE9000106A90EA8FFF7A1FCDDE9B1
:102C30000F010E9A0391002104910092BA462107D8
:102C40000CD40399514500DA8A46BAF1010F05DD2B
:102C5000009AAAF10101515C302908D0B84202DA89
:102C600010F1040F06DA0121CDE9011015E0AAF1F7
:102C70000101E9E7002805DC049901440491AAEB6D
:102C8000000102E0411C514500DD8A460499401ACA
:102C9000401C01904FF000400290200704D401989E
:102CA000504501DBCDF8048000208DF84F000298DC
:102CB0000DF14F07B0F1004F25D02B200E90029858
:102CC0004FF0020800280CDA404202902D200E90AE
:102CD00007E00A210298FFF70FFB3031029007F856
:102CE000011DB8F10001A8F10108F2DC02980028EA
:102CF000EFD1791E0E980870307800F0200040F077
:102D0000450007F8020D12A8C01B00F1070814982F
:102D1000007800B1012000EB0A01019801EBE0719D
:102D200005984144401A401E0590E00306D45B46D6
:102D30002146179A059800F05DF80544149800782C
:102D400018B15A46179990476D1CE00324D55B468D
:102D50002146179A059800F04DF805441CE00498A8
:102D6000002807DBDDE90301884203DD0098405CB1
:102D7000179901E0179930205A469047049805F1B9
:102D80000105401C04900198401E019004D12E20A2
:102D90005A46179990476D1CBAF10001AAF1010A31
:102DA000DDDC05E017F8010B5A46179990476D1CBA
:102DB000B8F10001A8F10108F4DC5B462146179A3E
:102DC0000598ABE62D0000002B000000200000005D
:102DD0002DE9F041044600251E461746880404D418
:102DE00005E039462020B0476D1C641EF9D5284601
:102DF000BDE8F0812DE9F041044600251E469046CD
:102E0000C80301D5302700E02027880404D505E059
:102E100041463846B0476D1C641EF9D52846BDE8CA
:102E2000F0810A68531C0B60107070474C2E00082C
:102E3000000000208C00000050250008D82E00085B
:102E40008C000020A40400006025000800000000A1
:102E50000000000000000000000000000000000072
:102E60000000000000000000000000000000000062
:102E70000000000000000000000000000000000052
:102E80000000000000000000000000000000000042
:102E90000000000000000000000000000000000032
:102EA0000000000000000000000000000100000021
:102EB00000000000000000000102030406070809EA
:102EC000A25D4F00000000000102030401020304A0
:082ED0000607080902040608C8
:0400000508000131BD
:00000001FF
